:020000040000FA
:06000000A6EF17F012004C
:0608C000A6EF17F0120084
:0608C8006FEF0EF01200BC
:0208D80012000C
:0108EA00010C
:0408EC001E0E716EFD
:1008F0000401400E096F0401200E0A6F040E0B6FF5
:100900000401880E086F0401600E0E6F040E0F6F55
:080910000401400E0C6F1200FF
:060AEA00120100020000F1
:100AF0000008D8040C0000000102030109022000D4
:100B000001010080FA09040000020000000007054E
:100B100001024000FF070581024000FF04030904B1
:100B20004A037700770077002E00660069006E00A8
:100B300067002E006500640075002E0075007900C6
:100B40002F0069006E0063006F002F0070007200BC
:100B50006F0079006500630074006F0073002F0060
:100B6000620075007400690061003603550053008F
:100B700042003400420075007400690061002000EA
:100B800032003000310031002000460049004E00A4
:100B9000470020005500640065006C0061005200B1
:100BA00012033000300030003000300030003000E0
:020BB000320011
:040CEA00FC0AFC0AFA
:060D2A001C0B200B6A0BFC
:020D3000A00B16
:060DAA000400CF2F000041
:100DB000C101000002000000CE2F0000FF00000073
:100DC00001000000922F0000000100003C00000024
:0C0DD000862F0000790100000C000000DC
:040DDC00D9CFE6FF86
:100DE000E1CFD9FFFE0EDB2AFE0EDB500A0802E13E
:100DF000FE0EDB6AFE0EDB5000D0E552E7CFD9FFD6
:100E00001200D9CFE6FFE1CFD9FFFE0EDB5005E19E
:100E10000A0EF36EFE0EF3CFDBFFFE0EDB06FE0EB8
:100E2000DB5000D0E552E7CFD9FF12000101C251DB
:100E30000101C15D02E0000E01D0010E00D01200E0
:100E4000F5DF000904E0F36AF46A11D010D0010163
:100E5000C151040DF3CF14F0F4CF15F0D50E1426C4
:100E6000000E152214C0F3FF15C0F4FF00D01200CD
:100E7000C1C1E6FFB3DFE5520101C16F1200D9CF56
:100E8000E6FFE1CFD9FF030EE126C2C1E6FFA6DFF0
:100E9000E552DF6E0101C251040DF3CF14F0F4CF1F
:100EA00015F0D50E1426000E1522010E14C0DBFF1E
:100EB000020E15C0DBFF0101C151DF5C03E1F36AE3
:100EC000F46A0DD0DFCFC2F1010EDBCF14F0020EB9
:100ED000DBCF15F014C0F3FF15C0F4FF00D0030EF4
:100EE000E15C02E2E16AE552E16EE552E7CFD9FF4B
:100EF0001200D9CFE6FFE1CFD9FFE652DF6A0A0E32
:100F0000DF5C1EE2DF50040DF3CFE9FFF4CFEAFF10
:100F1000D50EE926000EEA22EE6AED6ADF50040DD6
:100F2000F3CFE9FFF4CFEAFFD50EE926000EEA225F
:100F3000020EE926000EEA22EE6AED6ADF2ADFD70A
:100F4000070ED56E460EE66E150EE66EF1EC0DF050
:100F5000E552E552E552E552E7CFD9FF1200D9CF6D
:100F6000E6FFE1CFD9FF0C0EE126D59E5FDF000939
:100F700006E0FD0EDBCFDEFFDBCFDDFF74D0D75008
:100F8000186E18C019F0186AD65000011810166EA5
:100F900019C017F0FF0ED8801656FF0E1756010124
:100FA000C151040DF3CFE9FFF4CFEAFFD50EE926D6
:100FB000000EEA221650EE5C146E1750EE58156EB5
:100FC000020E14C0DBFF030E15C0DBFFFD0EDBCFEE
:100FD00016F0FE0EDBCF17F0020EDB501624146E57
:100FE000030EDB501720156E14C0DEFF15C0DDFFA9
:100FF000DECF14F0DDCF15F0020EDBCF16F0030EBE
:10100000DBCF17F01650145C175015582CE2040E65
:10101000C1C1DBFF040EDB500101C25D1FE0020E07
:10102000DBCF14F0030EDBCF15F0040EDB50040D04
:10103000F3CFE9FFF4CFEAFFD50EE926000EEA224E
:101040001450EE5E1550ED5A040EDBCFE6FFC6DEFF
:10105000E552E76E040EE7CFDBFFDCD7FD0EDBCFFA
:10106000DEFFDBCFDDFF040EC2C1DBFF040EDBCFF2
:10107000E6FFC7DEE552E76E050EE7CFDBFFFFDEDA
:10108000060EF3CFDBFF070EF4CFDBFFD950060FC0
:10109000E96EDACFEAFFEE50ED1002E1000EC9D0A2
:1010A000060EDBCFE9FF070EDBCFEAFFDECFEEFF58
:1010B000DDCFEDFF060EDBCFE9FF070EDBCFEAFF4A
:1010C000020EE926000EEA22FB0EDBCFEEFFFC0E3D
:1010D000DBCFEDFF040EDB500101C15D01E187D0E4
:1010E000040EDB50040DF3CFE9FFF4CFEAFFD50E79
:1010F000E926000EEA22EECF14F0EFCF15F0050E30
:10110000DB50040DF3CFE9FFF4CFEAFFD50EE9265B
:10111000000EEA22EECF16F0EFCF17F01650145C57
:101120001750155864E2050EDB50040DF3CFE9FFAC
:10113000F4CFEAFFD50EE926000EEA22080EEECF24
:10114000DBFF090EEECFDBFF0A0EEECFDBFF0B0E4F
:10115000EECFDBFF040EDB50040DF3CFE9FFF4CF3D
:10116000EAFFD50EE926000EEA22EECF14F0EECF0C
:1011700015F0EECF16F0EFCF17F0050EDB50040D93
:10118000F3CFE9FFF4CFEAFFD50EE926000EEA22FD
:1011900014C0EEFF15C0EEFF16C0EEFF17C0EEFF45
:1011A000040EDB50040DF3CFE9FFF4CFEAFFD50EB8
:1011B000E926000EEA22080EDBCFEEFF090EDBCF98
:1011C000EEFF0A0EDBCFEEFF0B0EDBCFEEFF050EC0
:1011D000DB50E76E040EE7CFDBFF040EDBCFE6FF4C
:1011E00010DEE552E76E050EE7CFDBFF73D7040E86
:1011F000DB500101C15D1AE1F294F28ADECF14F0F6
:10120000DDCF15F0FF0ED8801456FF0E155614C012
:10121000DEFF15C0DDFFDECF14F0DDCF15F015C009
:1012200014F0156A1450D76EDF50D66ED58E010EAD
:1012300000D0146E0C0EE15C02E2E16AE552E16E50
:101240001450E552E7CFD9FF1200D9CFE6FFE1CF26
:10125000D9FF0C0EE1260101C151040DF3CFE9FFC6
:10126000F4CFEAFFD50EE926000EEA22020EEECFF9
:10127000DBFF030EEDCFDBFFFD0EDBCF16F0FE0E26
:10128000DBCF17F0020EDB501624146E030EDB507A
:101290001720156E14C0DEFF15C0DDFFDECF14F081
:1012A000DDCF15F0020EDBCF16F0030EDBCF17F00B
:1012B0001650145C175015582CE2040EC1C1DBFF08
:1012C000040EDB500101C25D1FE0020EDBCF14F003
:1012D000030EDBCF15F0040EDB50040DF3CFE9FF56
:1012E000F4CFEAFFD50EE926000EEA221450EE5E96
:1012F0001550ED5A040EDBCFE6FF70DDE552E76EC8
:10130000040EE7CFDBFFDCD7FD0EDBCFDEFFDBCF4C
:10131000DDFF040EC2C1DBFF040EDBCFE6FF71DD93
:10132000E552E76E050EE7CFDBFFA9DD060EF3CF32
:10133000DBFF070EF4CFDBFFD950060FE96EDACFE3
:10134000EAFFEE50ED1002E1000EAFD0060EDBCF4B
:10135000E9FF070EDBCFEAFFDECFEEFFDDCFEDFFCB
:10136000060EDBCFE9FF070EDBCFEAFF020EE92610
:10137000000EEA22FB0EDBCFEEFFFC0EDBCFEDFF13
:10138000050EDB500101C15D01E18DD0040EDB5083
:101390000101C15D01E187D0040EDB50040DF3CFE4
:1013A000E9FFF4CFEAFFD50EE926000EEA22EECFE0
:1013B00014F0EFCF15F0050EDB50040DF3CFE9FF6D
:1013C000F4CFEAFFD50EE926000EEA22EECF16F0A2
:1013D000EFCF17F01650145C1750155864E2050E45
:1013E000DB50040DF3CFE9FFF4CFEAFFD50EE92679
:1013F000000EEA22080EEECFDBFF090EEECFDBFF78
:101400000A0EEECFDBFF0B0EEECFDBFF040EDB5040
:10141000040DF3CFE9FFF4CFEAFFD50EE926000E65
:10142000EA22EECF14F0EECF15F0EECF16F0EFCFAC
:1014300017F0050EDB50040DF3CFE9FFF4CFEAFF00
:10144000D50EE926000EEA2214C0EEFF15C0EEFF0D
:1014500016C0EEFF17C0EEFF040EDB50040DF3CFF5
:10146000E9FFF4CFEAFFD50EE926000EEA22080EC6
:10147000DBCFEEFF090EDBCFEEFF0A0EDBCFEEFF78
:101480000B0EDBCFEEFF050EDB50E76E040EE7CF51
:10149000DBFF040EDBCFE6FFB4DCE552E76E050EA2
:1014A000E7CFDBFF6DD7010E00D0146E0C0EE15CB0
:1014B00002E2E16AE552E16E1450E552E7CFD9FF4E
:1014C0001200D9CFE6FFE1CFD9FFE652C1C1DFFF5D
:1014D0000101C251DF5C30E0DF50040DF3CFE9FFC2
:1014E000F4CFEAFFD50EE926000EEA22020EE92625
:1014F000000EEA22EECF14F0EFCF15F0FD0EDB5018
:10150000141803E1FE0EDB50151810E1DF50040D36
:10151000F3CFE9FFF4CFEAFFD50EE926000EEA2269
:10152000020EE926000EEA22EE6AED6ADFCFE6FF40
:1015300055DCE552DF6ECCD7010E00D0E552E55206
:10154000E7CFD9FF1200D9CFE6FFE1CFD9FF080ED0
:10155000E126F2A46BD0D59EF29472DCF3CFDEFFCD
:10156000F4CFDDFFDECFE9FFDDCFEAFF020EE92693
:10157000000EEA22060EEECFDBFF070EEDCFDBFFFB
:10158000D950060FE96EDACFEAFFEE50ED100CE00D
:10159000060EDBCF14F0070EDBCF15F004D015C01C
:1015A000FAFF1450F96EFBDFDECFE9FFDDCFEAFF73
:1015B000020EEECFDBFF030EEDCFDBFF59DC40DC8C
:1015C000F3CFDEFFF4CFDDFFD9CFE9FFDACFEAFFBB
:1015D000EE50ED102BE0DECFE9FFDDCFEAFFEECFDE
:1015E00016F0EFCF17F0020EDB50165C146E030EF0
:1015F000DB501758156EFF0ED8801456FF0E155687
:10160000040E14C0DBFF050E15C0DBFF040EDBCF9C
:1016100014F0050EDBCF15F015C014F0156A145048
:10162000D76E040EDB50D66EF294D58E080EE15CB8
:1016300002E2E16AE552E16EE552E7CFD9FF12001E
:10164000D9CFE6FFE1CFD9FFE652DF68A650020B03
:1016500005E0DF50DF06000801E2F8D7E552E55269
:10166000E7CFD9FF1200ECDF110EE66E090EE66E31
:10167000E66A59EC17F0E552E552E5521200D9CF6F
:10168000E6FFE1CFD9FFFE0EDBCFAEF1EC0EE66E4A
:10169000160EE66EAEC1E6FF80EC1AF0E552E5529A
:1016A000E552AEC1E6FF24EC1FF0E552F3CFACF1FA
:1016B000F4CFADF1E552E7CFD9FF1200D9CFE6FF65
:1016C000E1CFD9FF00D0E552E7CFD9FF12006D96E8
:1016D0000101AF6BB06B0101AF07000EB05B010100
:1016E000AF51B01101E0F7D7FF001200D9CFE6FFEC
:1016F000E1CFD9FF120EE126DE52110EDD6E020E91
:10170000DB6ADF6AFD0EDBCFE9FFFE0EDBCFEAFF0F
:10171000EF50FF0A01E1F5D1F40A01E198D1010A85
:1017200001E181D1030A01E17BD10F0A01E127D157
:10173000030A01E110D1010A01E10CD1070A01E11C
:1017400008D1010A01E1E2D0050A01E1D6D0060A7A
:1017500001E1AED0010A13E0FE0A01E0D4D1ACC130
:10176000E9FFADC1EAFFFE0EEF6EACC1E9FFADC10E
:10177000EAFFEE520B0EEF6E020EDF6EC5D1FD0ECC
:10178000DBCFE9FFFE0EDBCFEAFF030EE926000EFA
:10179000EA22E9CF14F0EACF15F014C0E6FF15C035
:1017A000E6FF3FEC0FF0E552E5520B0EF3CFDBFF07
:1017B0000C0EF4CFDBFF0B0EDBCFE6FF0C0EDBCF06
:1017C000E6FF99EC1DF0E552E552000956E1D950CB
:1017D0000B0FE96EDACFEAFFFF0EEE1801E1ED50D4
:1017E00045E0FD0EDBCFE9FFFE0EDBCFEAFFEE5258
:1017F000010EEFCFDBFF0B0EDBCFE6FF0C0EDBCFD6
:10180000E6FF010EDBCFE6FFF1EC1CF0E552E552FE
:10181000E552E76E0F0EE7CFDBFF0B0EDBCFE6FFE7
:101820000C0EDBCFE6FFA2EC10F0E552E5520D0EF8
:10183000F3CFDBFF0E0EF4CFDBFF0D0EDBCF14F08A
:101840000E0EDBCF15F00F0EDBCFE6FF04D015C078
:10185000FAFF1450F96EFBDFE552ACC1E9FFADC1F0
:10186000EAFFEE520F0EDBCFEFFF06D0ACC1E9FF6F
:10187000ADC1EAFFEE52EF6813D00B0EDBCFE6FFEF
:101880000C0EDBCFE6FFC7EC1DF0E552E552E66E2D
:10189000ACC1E9FFADC1EAFFEE52E552E750EF6E91
:1018A000ACC1E9FFADC1EAFFEF6A020EDF6E2CD1D9
:1018B000FD0EDBCFE9FFFE0EDBCFEAFFEE520F0E8F
:1018C000EFCFDBFF0F0EDBCFE6FF95EC1EF0E5520E
:1018D000E76E100EE7CFDBFFACC1E9FFADC1EAFF59
:1018E000EE52100EDBCFEFFFACC1E9FFADC1EAFF56
:1018F000010EEF6E020EDF6E07D1ACC1E9FFADC184
:10190000EAFF070EEF6E010EDF6EFED0DF6AFC0EFF
:10191000DB50DF5C1AE2DF50E76EFD0EDBCFE9FF44
:10192000FE0EDBCFEAFFE750E926000EEA22EF5079
:10193000E66EDF500101EA6AAC25E96EAD51EA229C
:10194000E552E750EF6EDF2AE2D7FC0EDB50DF6E88
:10195000DBD0DAD0D9D0ACC1E9FFADC1EAFF050ECA
:10196000EF6ED0EC0FF0E66EACC1E9FFADC1EAFF5F
:10197000EE52E552E750EF6E020EDF6EC5D0ACC1FD
:10198000E9FFADC1EAFF060EEF6EFD0EDBCFE9FF0A
:10199000FE0EDBCFEAFFEE52020EEFCFDBFFD95097
:1019A000030FE66E000EDA20E66E020EDBCFE6FFD6
:1019B0003AEC10F0E552E552E552110EDB6A080EE2
:1019C000F36E110EDBCFF4FFF350F45C26E2D95036
:1019D000030F166EDACF17F0110EDB500F0116242D
:1019E000E96E000E1720EA6EEF50E66EACC1E9FF1B
:1019F000ADC1EAFFEE52E9CF14F0EACF15F0110EB7
:101A0000DB500F011424E96E000E1520EA6EE5523A
:101A1000E750EF6E110EDB2AD2D7090EDF6E74D0BD
:101A200022DE55DE71D0ACC1E9FFADC1EAFF0A0E7E
:101A3000EF6E93EC1FF0E66EACC1E9FFADC1EAFFBB
:101A4000EE52E552E750EF6E020EDF6E5DD0ACC194
:101A5000E9FFADC1EAFF0B0EEF6EFD0EDBCFE9FF34
:101A6000FE0EDBCFEAFFEE520F0EEFCFDBFF0E0EC6
:101A7000146E14C00EF00F0EDBCF09F0B4EC17F0AB
:101A80000F0E05C0DBFF0F0EDB50040DF3CFE9FF97
:101A9000F4CFEAFF610EE926000EEA22EF50200B98
:101AA00001E0010E146E156A1450151021E10F0E9D
:101AB000DB50040DF3CFE9FFF4CFEAFF610EE92616
:101AC000000EEA22020EE926000EEA22EECFE6FF21
:101AD000EFCFE6FF09EC10F0E552E552E66EACC13F
:101AE000E9FFADC1EAFFEE52E552E750EF6E06D0D6
:101AF000ACC1E9FFADC1EAFFEE52EF68020EDF6E46
:101B000003D0E5DD01D000D0DFCFE6FFAEC1E6FFB8
:101B1000C6EC1BF0E552E552120EE15C02E2E16A0E
:101B2000E552E16EE552E7CFD9FF1200D9CFE6FFCB
:101B3000E1CFD9FF020EE126DF80DF92DF94DF964E
:101B4000DF98DF9ADECF14F0DDCF15F014C0F3FF7D
:101B500015C0F4FF00D0020EE15C02E2E16AE5523A
:101B6000E16EE552E7CFD9FF1200D9CFE6FFE1CF12
:101B7000D9FF020EE126DF80DF92DF94DF96DF9847
:101B8000DF9ADECF14F0DDCF15F014C0F3FF15C0DF
:101B9000F4FF00D0020EE15C02E2E16AE552E16E80
:101BA000E552E7CFD9FF1200D9CFE6FFE1CFD9FF49
:101BB000E652DF6A050EDF5C0DE2EA6ADF34FE0BF7
:101BC000EA36E96E850EE926010EEA22EE6AED6A32
:101BD000DF2AF0D701018F6BE552E552E7CFD9FF3D
:101BE0001200D9CFE6FFE1CFD9FF050E01018F5DCD
:101BF00002E1000E19D001018F51E96EEA6AD89016
:101C0000E936EA36850EE926010EEA22FD0EDBCF23
:101C1000EEFFFE0EDBCFEDFF01018F518F2B000891
:101C200001E2F28E010E00D0E552E7CFD9FF12009B
:101C3000D9CFE6FFE1CFD9FFE652DF6A050EDF5CC0
:101C400047E2EA6ADF34FE0BEA36E96E850EE926E2
:101C5000010EEA22EE50ED103BE0EA6ADF34FE0BA3
:101C6000EA36E96E850EE926010EEA22EECF14F07F
:101C7000EFCF15F0FD0EDB50141803E1FE0EDB5024
:101C8000151824E101018F0701018F51E96EEA6AFD
:101C9000D890E936EA36850EE926010EEA22EECF23
:101CA00014F0EFCF15F0EA6ADF34FE0BEA36E96E86
:101CB000850EE926010EEA2214C0EEFF15C0EDFFE5
:101CC00001018F5101E1F29E010E04D0DF2AB6D747
:101CD000000E00D0E552E552E7CFD9FF1200DACF6F
:101CE000E4FFE2CFDAFFE9CFE4FFEACFE4FFF6CF8B
:101CF000E4FFF7CFE4FFF5CFE4FFF3CFE4FFF4CF49
:101D0000E4FFFACFE4FF00EE00F0140EE80403E372
:101D1000EECFE4FFFBD700EE14F0080EE80403E377
:101D2000EECFE4FFFBD7E652D9CFE6FFE1CFD9FFF4
:101D3000E652DF6A01018F51DF5C15E2EA6ADF34A7
:101D4000FE0BEA36E96E850EE926010EEA22EECF99
:101D50001CF0EFCF1DF004D01DC0FAFF1C50F96E2F
:101D6000FBDFDF2AE7D7E552E552E7CFD9FFE5529F
:101D700000EE1BF0080EE80403E3E5CFEDFFFBD710
:101D800000EE13F0140EE80403E3E5CFEDFFFBD7FC
:101D9000E5CFFAFFE5CFF4FFE5CFF3FFE5CFF5FFA1
:101DA000E5CFF7FFE5CFF6FFE5CFEAFFE5CFE9FFA7
:101DB000E5CFDAFF1100D9CFE6FFE1CFD9FF030E5F
:101DC000E126DF6ADE52010EDD6E020EDB6ADF6A9B
:101DD000080EDF5C45E2020EDB5042E1DF50E76EA9
:101DE000FD0EDBCFE9FFFE0EDBCFEAFFE750E92671
:101DF000000EEA22EF500EE0DF50E76EFB0EDBCF65
:101E0000E9FFFC0EDBCFEAFFE750E926000EEA22ED
:101E1000EF5005E1010EF36E020EF3CFDBFFDF5052
:101E2000E76EFD0EDBCFE9FFFE0EDBCFEAFFE750EA
:101E3000E926000EEA22EFCF14F0DF50E76EFB0E2A
:101E4000DBCFE9FFFC0EDBCFEAFFE750E926000E0F
:101E5000EA22EF50145C02E0010EDB6ADF2AB8D7F9
:101E6000010EDB5000D0146E030EE15C02E2E16A69
:101E7000E552E16E1450E552E7CFD9FF1200D9CFF9
:101E8000E6FFE1CFD9FF0D0EE126AB0EDE6E330E7D
:101E9000DD6E0C0EDB6ADECFF6FFDDCFF7FF08004C
:101EA000F5CF14F0156A14BE15680001141C01E189
:101EB000151C69E0D9CFE9FFDACFEAFF020EEECFB9
:101EC000DBFF030EEDCFDBFF0C0EDB6A080EF36EBB
:101ED0000C0EDBCFF4FFF350F45C2CE2020EDBCFF0
:101EE000F6FF030EDBCFF7FF040EF626000EF722F7
:101EF000F6CF16F0F7CF17F00C0EDB500F011624BB
:101F0000F66E000E1720F76E0800F550E66ED950F9
:101F1000040F146EDACF15F00C0EDB500F011424F1
:101F2000E96E000E1520EA6EE552E750EF6E0C0EDA
:101F3000DB2ACCD7FD0EDBCFE6FFFE0EDBCFE6FFC4
:101F4000D950040FE66E000EDA20E66E34DFE5525B
:101F5000E552E552E552000909E0DECF14F0DDCF8D
:101F600015F014C0F3FF15C0F4FF10D0DECF14F04D
:101F7000DDCF15F00C0E1426000E152214C0DEFF66
:101F800015C0DDFF88D7F368F46A00D00D0EE15C60
:101F900002E2E16AE552E16EE552E7CFD9FF1200B5
:101FA000D9CFE6FFE1CFD9FF030EE126AB0EDE6EFF
:101FB000330EDD6E020EDB6ADECFF6FFDDCFF7FFFC
:101FC0000800F5CF14F0156A14BE15680001141C42
:101FD00001E1151C0FE0DECF14F0DDCF15F00C0E83
:101FE0001426000E152214C0DEFF15C0DDFF020E00
:101FF000DB2AE2D7020EDB5000D0146E030EE15C48
:1020000002E2E16AE552E16E1450E552E7CFD9FFF2
:102010001200D9CFE6FFE1CFD9FF020EE126AB0EC9
:10202000DE6E330EDD6EFD0EDBCF16F0FE0EDBCF67
:1020300017F0DE50165C146EDD501758156E0C0E3E
:102040000D6E0E6A14C008F015C009F0D5EC15F03D
:1020500008C014F009C015F0145000D0146E020E20
:10206000E15C02E2E16AE552E16E1450E552E7CF2D
:10207000D9FF1200D9CFE6FFE1CFD9FF050EE12647
:10208000AB0EF36E010EF3CFDBFF330EF36E020ED9
:10209000F3CFDBFFFE0EDB500C0DF350E76E010EAD
:1020A000DBCF14F0020EDBCF15F0E7501426000E44
:1020B0001522010E14C0DBFF020E15C0DBFF010E5E
:1020C000DBCF08F0020EDBCF09F0030E08C0DBFF08
:1020D000040E09C0DBFFDF6A080EDF5C29E2030E95
:1020E000DBCFF6FF040EDBCFF7FF040EF626000E63
:1020F000F722F6CF14F0F7CF15F0DF500F011424BC
:10210000F66E000E1520F76E0800F550E66EDF50F3
:10211000E76EFC0EDBCFE9FFFD0EDBCFEAFFE750F9
:10212000E926000EEA22E552E750EF6EDF2AD4D707
:10213000050EE15C02E2E16AE552E16EE552E7CFAD
:10214000D9FF1200D9CFE6FFE1CFD9FF020EE12679
:10215000FD0EDBCFDEFFDBCFDDFFDECFF6FFDDCF19
:10216000F7FF0900F5CF14F00800F5CF15F014C003
:10217000F3FF15C0F4FF00D0020EE15C02E2E16A59
:10218000E552E16EE552E7CFD9FF1200D9CFE6FF65
:10219000E1CFD9FF020EE126FD0EDBCFDEFFDBCF64
:1021A000DDFFDECFF6FFDDCFF7FF020EF626000ED5
:1021B000F7220900F5CF14F00800F5CF15F014C090
:1021C000F3FF15C0F4FF00D0020EE15C02E2E16A09
:1021D000E552E16EE552E7CFD9FF120005D820D8CD
:1021E000ACEC1AF0FCD7120092689368CF0E9410F2
:1021F000946E95689668DCEC29F0F00EC114C16EFF
:10220000C280140E6F6E0101B16B0101B26B01014E
:10221000B36BD4EC0DF079EC07F027EC1EF0120054
:1022200062EC14F06F50800B01E0010E146E156A21
:10223000010E141801E1155002E095EC14F01200A3
:1022400004011051600BE842E842E842E842E842EB
:10225000146E156A1450151001E058D00401115184
:10226000070A53E00B0A51E0070A42E0010A2CE09A
:102270000B0A28E0020A26E0030A22E0080A12E01C
:10228000010A0EE00F0A0AE0030A01E03ED0010154
:10229000010EA56F0101040EB16F38D038D836D0C9
:1022A00093D834D00101010EA56F0101B30EA66FC2
:1022B000010EA76F0101B2930101010EAA6F26D092
:1022C000ABD824D000D922D00101010EA56F0401A2
:1022D00014510101A66FA76BB40E0101A627010ED0
:1022E0000101A7230101B2930101010EAA6F0ED0D3
:1022F0000101010EA56F04011451EA6AB40FE96EE1
:10230000010EEA2212C4EFFF01D000D01200800EAD
:102310000401105D58E104011351030A34E0010A7D
:1023200010E0030A01E04DD00101010EA56F01018B
:10233000EA0EA66F0A0EA76F120E0101AA6FAB6B11
:1023400040D00101010EA56F04011251F66EF76A2B
:10235000D890F636F736EA0EF6260C0EF72209006C
:10236000F5CFA6F10A00F5CFA7F1020E0101F76A39
:10237000A625F66EA751F7220900F5CFAAF10A00AB
:10238000F5CFABF11ED00101010EA56F0401125172
:10239000F66EF76AD890F636F7362A0EF6260D0E48
:1023A000F7220900F5CFA6F10A00F5CFA7F1A6C1E3
:1023B000F6FFA7C1F7FF0800F5500101AA6FAB6B4C
:1023C00000D00101B28312000101010EA56F0F0EB2
:1023D000E66E710EE66E0F0EE66E3EEC15F0E552FF
:1023E000E552E552010EE66EB40EE66E010EE66EA3
:1023F0003EEC15F0E552E552E55212C4B3F104018A
:10240000125104E10101050EB16F05D00101060E64
:10241000B16F76EC04F012000401186B0401196B23
:10242000040110511F0B020A1BE0030A15E0010A08
:1024300001E03BD00101010EA56F040118810101EB
:10244000B251010B146E156A010E141801E11550FA
:1024500002E10401188329D00101010EA56F25D0E6
:102460000101010EA56F040114510F0B080DF3506B
:10247000156A000F146E040E152204011451800B0E
:1024800001E0010E040DF35001011424A86F000EA9
:102490001520A96FA8C1E9FFA9C1EAFFEF50040BFD
:1024A00003E00401010E186F00D00101A5050AE147
:1024B0000101180EA66F040EA76F0101B29301016E
:1024C000020EAA6F12000401120514E1040110515A
:1024D0001F0B146E156A145015100CE10101010E4A
:1024E000A56F030E0401115D03E10101B28102D069
:1024F0000101B291040112514FE1040110511F0B6F
:10250000146E156A020E141801E1155045E104011C
:1025100014510F0B166E176A165017103DE001018B
:10252000010EA56F040114510F0B080DF350156A2D
:10253000000F146E040E152204011451800B01E0EB
:10254000010E040DF35001011424A86F000E152094
:10255000A96F030E0401115D07E1840EA8C1E9FF14
:10256000A9C1EAFFEF6E18D004011451800B01E0FD
:10257000010E146E156A010E141801E1155006E1E2
:10258000A8C1E9FFA9C1EAFFEF6A06D0880EA8C179
:10259000E9FFA9C1EAFFEF6E12006C50146E156AD4
:1025A0001450151010E1040100513C0BE842E842C0
:1025B000146E156A0D0E141801E1155002E10DD8C4
:1025C00001D016D809D06C50146E156A040E141878
:1025D00001E1155001E125D812000101A46B0101B0
:1025E000A56B0101AA6BAB6B20EC11F003D91200B3
:1025F000020E0101A45D13E1BBD804010051400BA0
:1026000001E0010E146E156A1450151004E1040166
:10261000C80E006F03D00401880E006F01D042D9AC
:102620001200040E0101B15D0CE112C46EFF6E5088
:10263000000804E20101050EB16F03D00101030E91
:10264000B16F0101A40513E114D804010451400B3A
:1026500001E0010E146E156A1450151004E1040116
:10266000C80E046F03D00401880E046F01D01AD97C
:102670001200D9CFE6FFE1CFD9FF020EE12601011A
:10268000080EAA5D000EAB5905E2AAC1DEFFABC180
:10269000DDFF03D0080EDE6EDD6A04010493040141
:1026A0000491010EDB5004010413DFCF05F4000E8A
:1026B000DB500101AA5F010EDB500101AB5B0101A0
:1026C000180EA86F040EA96F0101B251020B01E0B0
:1026D000010E146E156A010E141801E1155020E167
:1026E000D9CFE9FFDACFEAFFEE50ED1018E0A6C12E
:1026F000F6FFA7C1F7FF0800F550A8C1E9FFA9C17F
:10270000EAFFEF6E0101A82B000EA9230101A62B01
:10271000000EA723DF06010E01E2DB06E1D71ED083
:10272000D9CFE9FFDACFEAFFEE50ED1017E0A6C1EE
:10273000E9FFA7C1EAFFEF50A8C1E9FFA9C1EAFF7D
:10274000EF6E0101A82B000EA9230101A62B000E9C
:10275000A723DF06010E01E2DB06E2D7020EE15CF1
:1027600002E2E16AE552E16EE552E7CFD9FF1200DD
:10277000D9CFE6FFE1CFD9FF020EE126030E040117
:102780000015E76E010EE7CFDBFF01C4DFFFDE506F
:102790000101AA27DD500101AB230101180EA66F2C
:1027A000040EA76FD9CFE9FFDACFEAFFEE50ED10A4
:1027B00017E0A6C1E9FFA7C1EAFFEF50A8C1E9FFF2
:1027C000A9C1EAFFEF6E0101A82B000EA9230101A8
:1027D000A62B000EA723DF06010E01E2DB06E2D7DF
:1027E000020EE15C02E2E16AE552E16EE552E7CFFA
:1027F000D9FF12000101A5510FE10401080E016F7C
:102800000401100E026F040E036F0401840E006FAA
:102810000401840E046F44D004011051800B01E0C8
:10282000010E146E156A010E141801E1155025E110
:102830000101AA510401165D0101AB5104011759B0
:1028400004E216C4AAF117C4ABF113DF0101010EB3
:10285000A46F0401080E016F0401100E026F040E34
:10286000036F0401800E006F0401180E066F040E42
:10287000076F0401C80E046F13D00101020EA46F8C
:102880000401056B0401C80E046F0401080E016FFA
:102890000401180E026F040E036F0401C80E006FCE
:1028A0006D9812000101A46B0401080E016F040170
:1028B000100E026F040E036F0401880E006F0401F6
:1028C000046B12006D50080B01E0010E146E156AC6
:1028D0001450151001E11AD80CD06D50080B01E00E
:1028E000010E146E156A010E141801E1155001E174
:1028F00014D80101B10509E16DBA07D0686A696AA7
:10290000698069880101020EB16F12006D6A696AFF
:102910006D860101010EB16F12006D6A696A6D96D4
:102920000101B16B1200F9DF12000101B15101E1A7
:1029300044D06850040B04E06950040B01E042D815
:102940006D50020B01E0010E146E156A010E141891
:1029500001E1155001E131D06850010B04E06950EC
:10296000010B01E060D86850100B04E06950100BB7
:1029700001E024D86850400B04E06950400B01E0AE
:1029800040D86850200B04E06950200B01E03BD890
:102990006850020B04E06950020B01E042D8030EBC
:1029A0000101B15D01E209D06850080B06E06950F1
:1029B000080B03E0CDEC12F0689612006984689869
:1029C0006D8212006D926994689412000101B251F7
:1029D000010B146E156A010E141801E1155010E177
:1029E000F1DF6D840101080EBD6F070EBE6F01019E
:1029F000BD07000EBE5B0101BD51BE11F8E16D9433
:102A00001200689C12007050010B146E156A010EC2
:102A1000141801E1155003E152EC14F07090689A1B
:102A20001200689212006A6A686A9F0E6B6E7B0ED3
:102A3000696E6E6A0F0EE66E710EE66E0F0EE66E32
:102A40001DD8E552E552E552160E706E6850080B1F
:102A500001E0010E146E156A010E141801E1155003
:102A600002E16896F3D76D9852EC14F00101B2912F
:102A70000101B36B0101030EB16F1200D9CFE6FF64
:102A8000E1CFD9FFFD0EDBCFE9FFFE0EDBCFEAFF82
:102A9000FC0EDB5004E0EE6AFC0EDB06F9D7E552D3
:062AA000E7CFD9FF120090
:0A2AA600019E08D0019E09AE05D084
:102AB000086C091EE86A0922018E09C003F008C0EB
:102AC00002F0136A126A8E0E046E056A46EF16F063
:102AD000016A82EC16F09AEC16F001B62AEF16F0B5
:102AE00001A205D001B82AEF16F031EF16F001AAC5
:102AF00005D001B02AEF16F031EF16F001B002D088
:102B000001A802D03DEF16F0056A0F500A24046EAA
:102B1000E86A05227E0E045EE86A055A126A136AA4
:102B2000026A036A0E500902F4CF03F0F3CF02F0F9
:102B30000D500902F3501326F4500222000E032216
:102B40000E500802F3501326F4500222000E032206
:102B50000C500902F3501226F4501322000E0222E8
:102B600003220D500802F3501226F4501322000ED7
:102B7000022203220E500702F3501226F4501322B1
:102B8000000E022203220C500802F4501226000EFE
:102B90001322022203220D500702F4501226000EC7
:102BA00013220222032246EF16F0006A0EAEDEEF79
:102BB00015F00D6C0E1EE86A0E22001E09AEE6EF3F
:102BC00015F0086C091EE86A0922001E80EC17F057
:102BD00009BEF6EF15F000AE000C086C091EE86A9D
:102BE0000922046C051EE86A0522000C00BEEDEF08
:102BF00015F00188FF0C016A82EC16F001B605EFB2
:102C000016F001A20ED001B405D07F0E096EFF0EA2
:102C1000086E1FD0800E096E086A1BD0096A086A08
:102C200018D001B0FBD78F0E0A60EDD77E0E0A6474
:102C3000F5D78E0E0A5C05E0D890093208320A2AD0
:102C4000F8D701A406D0086C091EE86A092209AE6B
:102C5000E5D712007F0E0A6EFF0E096E086E076E32
:102C600012007F0E01BEFF0E0A6E02D07F0E0A6EAA
:102C7000800E096E086A076AF3D701AE04D0800E91
:102C80000A6E096AF7D70A6A096AF4D70350021074
:102C900013101210F8E005BEF0D703BE0CD004509C
:102CA0000510EBE0D89012361336023603360406D0
:102CB000D8A00506F2D70550D4E10428D2E012AE20
:102CC00011D07F0E121402E113A00CD0132AE86A6F
:102CD0000222032207E3D880033202321332042A8D
:102CE0000428BFE00450C9E013C007F002C008F098
:102CF0000334096E04300A6E09320A9E01BE0A8E40
:102D000030EF16F009360A3602E30184017E06E14F
:102D100001800A6A096A086A076A12000A2803E041
:102D2000D88009321200D890093202E101821200E3
:102D3000018612000E360F3602E3018C017E06E199
:102D400001880F6A0E6A0D6A0C6A12000F2803E0F0
:102D5000D8800E321200D8900E32EAE1018A1200B9
:102D6000706F7274000000000000FF006C696768FB
:102D700074000000301EF423627574746F6E0000DE
:102D8000E779BC866C65640000000000A1E6DCEA1F
:102D900064697374616E63007392CE9E766F6C7417
:102DA000000000009A60EF6C726573000000000084
:102DB000DA4AE8556772657900000000D505170703
:102DC00074656D70000000000BE725E26D6F6453C1
:102DD000656E4100BDDB8CE16D6F6453656E420032
:102DE0001ECEB0D56D6F6453656E430025B37DBDB7
:102DF0006D6F64416374410055159A196D6F64419C
:102E000063744200A10EA8116D6F644163744300A6
:042E1000290A4F0C30
:0C2E1400AA0EF66E0D0EF76E000EF86EA2
:102E200001010900F5509F6F0900F550A06F03E103
:102E30009F6701D03DD00900F5509A6F0900F55009
:102E40009B6F0900F5509C6F09000900F550E96E71
:102E50000900F550EA6E090009000900F5509D6F60
:102E60000900F5509E6F09000900F6CFA1F1F7CFD8
:102E7000A2F1F8CFA3F19AC1F6FF9BC1F7FF9CC165
:102E8000F8FF01019D5302E19E5307E00900F55050
:102E9000EE6E9D07F8E29E07F9D7A1C1F6FFA2C129
:102EA000F7FFA3C1F8FF01019F07000EA05BBFD78A
:022EB00012000E
:0E2EB200D9CFE6FFDACFE6FFE1CFD9FFE2CFBE
:102EC000DAFFFF0EE76EFC0EDBCF14F0E7501416AE
:102ED0001450A96EFB0EDB50A86EA69EA69CA6847D
:102EE000F29E550EA76EAA0EA76EA682A6B2FED7B8
:102EF000F28EA694E552E5CFDAFFE7CFD9FF1200B4
:102F0000056A046A100EE76ED89008360936043652
:102F100005360D50045C0E50055805E30D50045E57
:0C2F20000E50055A082AE72EF0D71200C8
:042F2C00000EF36E32
:102F300000EE00F0080E01D81200EA6002D0EE6A3E
:0C2F4000FCD7F350E9601200EE6AFCD7E9
:042F4C0013EE00F090
:102F500023EE00F0F86A019C0AEC17F0C2EC17F0BF
:082F6000EEEC10F0FBD71200AB
:082F6800056A080EE76ED8901F
:102F7000093605360E50055C02E3056E092AE72E78
:042F8000F7D712006D
:022F8400120039
:0A2F8600F0600000010000000000F0
:022F900000003F
:0E2F920000479C464647624780464248DE475D
:102FA0008848A448C24784492049CA49E649044997
:102FB000C64A624A0C4B284B464A084CA44B4E4C1E
:0E2FC0006A4C884B464DE64C904DAC4DCA4CC9
:012FCE000002
:012FCF000001
:012FD0000000
:0533AB007E16BC166156
:1033B000646D696E000000BA3FB440706E7000002A
:1033C00000000024459645706F727400000000C430
:1033D0004E004F6178000000000000FA6336646D13
:1033E0006F746F7273000036687268627574696119
:1033F000000000A869186A6D6F644163744100A8F9
:1034000069186A6D6F644163744200A869186A6D37
:103410006F644163744300A869186A6C65640000B6
:10342000000000E86B5A6C6D6F6453656E4100E8F4
:103430006B5A6C6D6F6453656E4200E86B5A6C6D2D
:103440006F6453656E4300E86B5A6C677265790070
:10345000000000E86B5A6C6C69676874000000E853
:103460006B5A6C7265730000000000E86B5A6C7652
:103470006F6C7400000000E86B5A6C74656D70002E
:10348000000000E86B5A6C64697374616E6300B885
:0B3490006D2A6E627574746F6E000090
:0834A800D9CFE6FFE1CFD9FF07
:1034B000FE0EEA6ADB34FE0BEA36E96E9C0EE92664
:1034C000000EEA22FC0EDBCFEEFFFD0EDBCFEDFFA0
:1034D000E552E7CFD9FF1200D9CFE6FFE1CFD9FF00
:1034E000FE0EEA6ADB34FE0BEA36E96E9C0EE92634
:1034F000000EEA22EE6AED6AE552E7CFD9FF12002C
:10350000D9CFE6FFE1CFD9FFFE0EEA6ADB34FE0B2E
:10351000EA36E96EB80EE926000EEA22FC0EDBCF91
:10352000EEFFFD0EDBCFEDFFE552E7CFD9FF120036
:10353000D9CFE6FFE1CFD9FFFE0EEA6ADB34FE0BFE
:10354000EA36E96EB80EE926000EEA22EE6AED6A66
:10355000E552E7CFD9FF1200D9CFE6FFE1CFD9FF7F
:10356000040EE126DE52010EDD6E060E0101B15D94
:103570000BE36D50020B01E0010E146E156A010E93
:10358000141801E1155001E1F7D03F0EDF6E010E76
:10359000DB50E824040DF3CFE9FFF4CFEAFF000E7F
:1035A000E926040EEA22EF50800B01E0E5D0010E7F
:1035B000DB50E824040DF3CFE9FFF4CFEAFF000E5F
:1035C000E926040EEA22EE52EF50D880DF540FE2D3
:1035D000010EDB50E824040DF3CFE9FFF4CFEAFF3E
:1035E000000EE926040EEA22EE52EFCFDFFF010EB5
:1035F000DB50E824040DF3CFE9FFF4CFEAFF000E1F
:10360000E926040EEA22020EE926000EEA22020E44
:10361000EECFDBFF030EEDCFDBFF020EDBCFE9FFCA
:10362000030EDBCFEAFFEF50F80BE842E842E84236
:10363000E96EEA6AD890E936EA36B80EE926000E55
:10364000EA22EECF14F0EFCF15F0020EDBCFE9FF48
:10365000030EDBCFEAFFEF50F80BE842E842E84206
:10366000E66E030EDF5CE66E010EDB50E824040D0F
:10367000F3CFE9FFF4CFEAFF000EE926040EEA22B9
:10368000020EE926000EEA22EECF16F0EFCF17F079
:10369000030E1626000E172216C0E6FF17C0E6FF1F
:1036A00004D015C0FAFF1450F96EFBDFE552E55265
:1036B000E552E552010EDBCFE6FF7FEC1FF0E5524D
:1036C000E66E010EDB50E824040DF3CFE9FFF4CFE2
:1036D000EAFF000EE926040EEA22EE52E552E75018
:1036E000EF6E400E146E010EDB50E824040DF3CF94
:1036F000E9FFF4CFEAFF000EE926040EEA22145097
:10370000EF16010EDB50E824040DF3CFE9FFF4CFF0
:10371000EAFF000EE926040EEA22EF50400B400AB1
:1037200001E0010E146E010EDB50E824040DF3CF0E
:10373000E9FFF4CFEAFF000EE926040EEA22145056
:10374000010BF36EF346F346F346F346F346F346B6
:10375000BF0EEF14F310EF6E880E146E010EDB50E7
:10376000E824040DF3CFE9FFF4CFEAFF000EE926C9
:10377000040EEA221450EF12040EE15C02E2E16A48
:10378000E552E16EE552E7CFD9FF1200D9CFE6FF4F
:10379000E1CFD9FF060EE126DF68FD0EDB5001E127
:1037A00016D1FE0EDB50040DF3CFE9FFF4CFEAFF94
:1037B000610EE926000EEA22010EEECFDBFF020EBB
:1037C000EECFDBFF030EEECFDBFF040EEECFDBFF11
:1037D000D950010FE96EDACFEAFFEF500F0BE76E19
:1037E000050EE7CFDBFF050EDB50E824010F040DCB
:1037F000F3CFE9FFF4CFEAFF000EE926040EEA2238
:10380000EF50800B05E0DF50DF06000801E2EBD748
:10381000050EDB50E824010F040DF3CFE9FFF4CFD0
:10382000EAFF000EE926040EEA22EF50800B01E0C9
:10383000CED0FD0EDB503D0805E23D0EF36EFD0ED1
:10384000F3CFDBFFFE0EDB5000011F0BF36EF346E0
:10385000F346F346070ED415F310D46F0001D4914C
:10386000D493D495050EDB50E824010F040DF3CF5B
:10387000E9FFF4CFEAFF000EE926040EEA22020E69
:10388000E926000EEA22EE50EFCFEAFFE96ED4C03F
:10389000EFFFFD0EDB50030FE66E050EDB50E82454
:1038A000010F040DF3CFE9FFF4CFEAFF000EE92684
:1038B000040EEA22020EE926000EEA22EE50EFCFB5
:1038C000EAFFE96E010EE926000EEA22E552E75012
:1038D000EF6E050EDB50E824010F040DF3CFE9FF76
:1038E000F4CFEAFF000EE926040EEA22020EE926D2
:1038F000000EEA22EE50EFCFEAFFE96E020EE92653
:10390000000EEA22EF6AFD0EDB50030FE66E050E95
:10391000DB50E824010F040DF3CFE9FFF4CFEAFFF9
:10392000000EE926040EEA22EE52E552E750EF6E51
:10393000400E146E050EDB50E824010F040DF3CF8A
:10394000E9FFF4CFEAFF000EE926040EEA22145044
:10395000EF16050EDB50E824010F040DF3CFE9FF4D
:10396000F4CFEAFF000EE926040EEA22EF50400BE6
:10397000400A01E0010E146E050EDB50E824010F31
:10398000040DF3CFE9FFF4CFEAFF000EE926040EA1
:10399000EA221450010BF36EF346F346F346F34666
:1039A000F346F346BF0EEF14F310EF6E880E146E5D
:1039B000050EDB50E824010F040DF3CFE9FFF4CF2F
:1039C000EAFF000EE926040EEA221450EF12060E5A
:1039D000E15C02E2E16AE552E16EE552E7CFD9FF30
:1039E0001200D9CFE6FFE1CFD9FFE652DF6A0E0E13
:1039F000DF5C45E2DF50040DF3CFE9FFF4CFEAFFCF
:103A0000610EE926000EEA22EF50200B01E0010EC4
:103A1000146E156A010E141801E115502EE1DF50E5
:103A2000040DF3CFE9FFF4CFEAFF610EE926000EA3
:103A3000EA22FE0EDBCFEFFFDF50040DF3CFE9FFEC
:103A4000F4CFEAFF610EE926000EEA22EF9ADF507A
:103A5000040DF3CFE9FFF4CFEAFF610EE926000E73
:103A6000EA22020EE926000EEA22FC0EDBCFEEFF70
:103A7000FD0EDBCFEDFFDF5004D0DF2AB8D7FF0EFD
:103A800000D0E552E552E7CFD9FF1200D9CFE6FFCB
:103A9000E1CFD9FFFB0EDB50040DF3CFE9FFF4CFEC
:103AA000EAFF610EE926000EEA22EF50200B01E04A
:103AB000010E146E156A010E141801E1155033E160
:103AC000FB0EDB50040DF3CFE9FFF4CFEAFF610EEC
:103AD000E926000EEA22FE0EDBCFEFFFFB0EDB50E5
:103AE000040DF3CFE9FFF4CFEAFF610EE926000EE3
:103AF000EA22EF9AFB0EDB50040DF3CFE9FFF4CF7F
:103B0000EAFF610EE926000EEA22020EE926000E07
:103B1000EA22FC0EDBCFEEFFFD0EDBCFEDFFFB0E4E
:103B2000DB5003D002D0FF0E00D0E552E7CFD9FF23
:103B30001200D9CFE6FFE1CFD9FFE652DF6A0E0EC1
:103B4000DF5C1EE2DF50040DF3CFE9FFF4CFEAFFA4
:103B5000610EE926000EEA22020EE926000EEA2294
:103B6000EECF14F0EFCF15F0FD0EDB50141803E18B
:103B7000FE0EDB50151802E1010E04D0DF2ADFD75C
:103B8000000E00D0E552E552E7CFD9FF1200D9CFA1
:103B9000E6FFE1CFD9FFE652DF6A0E0EDF5C1EE2E0
:103BA000DF50040DF3CFE9FFF4CFEAFF610EE92601
:103BB000000EEA22020EE926000EEA22EECF14F0F1
:103BC000EFCF15F0FD0EDB50141803E1FE0EDB50B5
:103BD000151802E1DF5004D0DF2ADFD7FF0E00D036
:103BE000E552E552E7CFD9FF1200D9CFE6FFE1CF8A
:103BF000D9FFE652DF6A0E0EDF5C1DE2DF50040DD6
:103C0000F3CFE9FFF4CFEAFF610EE926000EEA22C6
:103C1000EF8ADF50040DF3CFE9FFF4CFEAFF610E26
:103C2000E926000EEA22020EE926000EEA22EE6ADA
:103C3000ED6ADF2AE0D7EA0EF66E080EF76E08008E
:103C4000F5CF60F0E552E552E7CFD9FF1200D9CFAA
:103C5000E6FFE1CFD9FF080EE126C7DF610EDF6E78
:103C6000DE52640EDD6E6D0EF36E020EF3CFDBFFDF
:103C7000690EF36E030EF3CFDBFF6E0EF36E040ED0
:103C8000F3CFDBFF050EDB6A060EDB6A070EDB6A8D
:103C900096EC0DF0F3CF61F0F4CF62F0D9CFE6FFF0
:103CA000DACFE6FF3FEC0FF0E552E552F3CF63F0D9
:103CB000F4CF64F0E66A3FEC0BF0E552700EDF6E75
:103CC000DE526E0EDD6E700EF36E020EF3CFDBFF72
:103CD000030EDB6A040EDB6A050EDB6A060EDB6A86
:103CE000070EDB6AB5EC0DF0F3CF7DF0F4CF7EF07C
:103CF000D9CFE6FFDACFE6FF3FEC0FF0E552E55211
:103D0000F3CF7FF0F4CF80F0BDEC31F0070EE66E1C
:103D1000DDEC1FF0E552080EE15C02E2E16AE552DB
:103D2000E16EE552E7CFD9FF1200D9CFE6FFE1CF30
:103D3000D9FF020EE1260E0EF36EFE0EDBCFF4FF6E
:103D4000F350F45C5DE2FE0EDB50040DF3CFE9FFAF
:103D5000F4CFEAFF610EE926000EEA22EF50200BB5
:103D600001E0010E146E156A1450151049E1FE0EA3
:103D7000DB50040DF3CFE9FFF4CFEAFF610EE92633
:103D8000000EEA22EF8AFE0EDB50040DF3CFE9FFAE
:103D9000F4CFEAFF610EE926000EEA22020EE926C0
:103DA000000EEA22EECFE6FFEFCFE6FFC6EC10F002
:103DB000E552E552F3CFDEFFF4CFDDFFDECF14F0A6
:103DC000DDCF15F0FE0EDBCFE6FF04D015C0FAFF05
:103DD0001450F96EFBDFE552FE0EDB50040DF3CFFD
:103DE000E9FFF4CFEAFF610EE926000EEA22020E97
:103DF000E926000EEA22EE6AED6A010E03D002D037
:103E0000000E00D0146E020EE15C02E2E16AE5529F
:103E1000E16E1450E552E7CFD9FF1200D9CFE6FF8B
:103E2000E1CFD9FFE652DF6A0E0EDF5C06E2DF2843
:103E3000E66E7BDFE552DF2AF7D7010E00D0E552B0
:103E4000E552E7CFD9FF1200D9CFE6FFE1CFD9FF86
:103E5000050EE126FE0EDB50040DF3CFE9FFF4CF93
:103E6000EAFF610EE926000EEA22EECFDFFF010E27
:103E7000EECFDBFF020EEECFDBFF030EEECFDBFF5C
:103E8000D9CFE9FFDACFEAFFEF500F0BE76E040E50
:103E9000E7CFDBFFFE0EDB500AE1630E146E040E6B
:103EA000156E14C0F3FF15C0F4FF1FD01ED0040E12
:103EB000DB50E824010F040DF3CFE9FFF4CFEAFF54
:103EC000000EE926040EEA22020EE926000EEA227E
:103ED000EECF14F0EFCF15F0030E1426000E1522CE
:103EE00014C0F3FF15C0F4FF00D0050EE15C02E240
:103EF000E16AE552E16EE552E7CFD9FF1200D9CF72
:103F0000E6FFE1CFD9FF400E00D0E552E7CFD9FF61
:103F10001200D9CFE6FFE1CFD9FF400E00D0E55225
:103F2000E7CFD9FF1200D9CFE6FFE1CFD9FF020ECC
:103F3000E126010EDB6ADF6A0E0EDF5C18E2DF505D
:103F4000040DF3CFE9FFF4CFEAFF610EE926000E7E
:103F5000EA22EF50200B01E0010E146E156A145096
:103F6000151003E1010EDFCFDBFFDF2AE5D7010EDD
:103F7000DB5000D0146E020EE15C02E2E16AE55211
:103F8000E16E1450E552E7CFD9FF1200D9CFE6FF1A
:103F9000E1CFD9FFE652DF6A060EDF5C09E2DF50AF
:103FA000EA6A920FE96E010EEA22EF6ADF2AF4D77D
:103FB000E552E552E7CFD9FF1200D9CFE6FFE1CFB6
:103FC000D9FF090EE1260001FF5101E069D0FE0E84
:103FD000DBCFFFF0A00EE66E440EE66EFFC0E6FFFC
:103FE00080EC1AF0E552E552E552FFC0E6FF24EC02
:103FF0001FF0E552F3CF90F1F4CF91F1B5EC0DF055
:10400000F3CF98F1F4CF99F1F9EC31F0020806E121
:10401000010EE66E06EC27F0E55204D0E66A06ECE7
:1040200027F0E552B3DF700EDF6EDE526F0EDD6EED
:10403000720EF36E020EF3CFDBFF740EF36E030EFF
:10404000F3CFDBFF040EDB6A050EDB6A060EDB6ACC
:10405000070EDB6A080EDB6A060EF36E080EDBCF76
:10406000F4FFF350F45C0EE2080EDB28E66ED9CFC5
:10407000E6FFDACFE6FFA5D8E552E552E552080E95
:10408000DB2AEAD7940EE66E420EE66E500EE66E1E
:10409000C30EE66EAFEC07F0E552E552E552E5528D
:1040A000090EE15C02E2E16AE552E16EE552E7CF1A
:1040B000D9FF1200D9CFE6FFE1CFD9FFFE0EDBCF4B
:1040C000E6FF6CEC1AF0E552FE0EDBCFE6FF98EC53
:1040D0001AF0E552940EE66E420EE66E61EC0AF0BE
:1040E000E552E552E552E7CFD9FF1200D9CFE6FFFE
:1040F000E1CFD9FF050EE126DF6ADF6A0F0EDF5C34
:1041000052E2DF500C0DF3CFF6FFF4CFF7FF600E55
:10411000F6262D0EF7220A0EF626000EF7220900CB
:10412000010EF5CFDBFF0A00020EF5CFDBFFDF50FB
:104130000C0DF3CFF6FFF4CFF7FF600EF6262D0E31
:10414000F722080EF626000EF7220900030EF5CF1F
:10415000DBFF0A00040EF5CFDBFFFD0EDBCF14F012
:10416000FE0EDBCF15F0010EDBCF16F0020EDBCF1B
:1041700017F01450165C1550175813E3030EDBCFDD
:1041800018F0040EDBCF19F0FD0EDBCF1AF0FE0E97
:10419000DBCF1BF018501A5C19501B5802E3DF509C
:1041A00004D0DF2AABD7000E00D0146E050EE15C00
:1041B00002E2E16AE552E16E1450E552E7CFD9FF21
:1041C0001200D9CFE6FFE1CFD9FF040EE126FD0EA4
:1041D000DBCFE6FFFE0EDBCFE6FF3FEC0FF0E55254
:1041E000E552020EF3CFDBFF030EF4CFDBFFD95015
:1041F000020FE96EDACFEAFFFF0EEE1801E1ED5093
:1042000031E0FC0EDBCFE6FF020EDBCFE6FF030E54
:10421000DBCFE6FF98C1E6FF46EC1DF0E552E55224
:10422000E552E552E76EFC0EE7CFDBFF020EDBCF77
:10423000E6FF030EDBCFE6FFA2EC10F0E552E552FD
:10424000F3CFDEFFF4CFDDFFDECF14F0DDCF15F0CE
:10425000FC0EDBCFE6FF04D015C0FAFF1450F96E58
:10426000FBDFE552040EE15C02E2E16AE552E16E39
:10427000E552E7CFD9FF1200D9CFE6FFE1CFD9FF52
:10428000FE0EDBCFE6FF95EC1EF0E552E552E7CFE0
:10429000D9FF1200D9CFE6FFE1CFD9FF0A0EE12600
:1042A000DF6A060EDF5C01E3E3D0DF500A0DF3CFD7
:1042B000E9FFF4CFEAFF000EE926010EEA22060E1E
:1042C000E926000EEA22EECF16F0EFCF17F004D069
:1042D00017C0FAFF1650F96EFBDFF3CF14F0F4CFDE
:1042E00015F014C0E6FF15C0E6FF00DFE552E55209
:1042F000E76E010EE7CFDBFFDF50EA6A920FE96E4F
:10430000010EEA22EF50F36E010EDB50F35C01E187
:10431000ADD0DF28E66EB0DFE552010EDB500C0DAC
:10432000F3CFF6FFF4CFF7FF600EF6262D0EF7223F
:104330000800020EF5CFDBFF010EDB500C0DF3CFB2
:10434000F6FFF4CFF7FF600EF6262D0EF722010ED2
:10435000F626000EF7220800030EF5CFDBFF010E54
:10436000DB500C0DF3CFF6FFF4CFF7FF600EF6260F
:104370002D0EF722020EF626000EF7220800040E7C
:10438000F5CFDBFF010EDB500C0DF3CFF6FFF4CFC2
:10439000F7FF600EF6262D0EF722030EF626000E0E
:1043A000F7220800050EF5CFDBFF010EDB500C0DE8
:1043B000F3CFF6FFF4CFF7FF600EF6262D0EF722AF
:1043C000040EF626000EF7220800060EF5CFDBFFDE
:1043D000010EDB500C0DF3CFF6FFF4CFF7FF600EAC
:1043E000F6262D0EF722050EF626000EF7220800FF
:1043F000070EF5CFDBFF010EDB500C0DF3CFF6FF00
:10440000F4CFF7FF600EF6262D0EF722060EF626E5
:10441000000EF7220800080EF5CFDBFF010EDB507F
:104420000C0DF3CFF6FFF4CFF7FF600EF6262D0E3E
:10443000F722070EF626000EF7220800090EF5CF28
:10444000DBFFDF28E66ED950020FE66E000EDA20A1
:10445000E66EB7DEE552E552E552DF50EA6A920FAA
:10446000E96E010EEA22010EDBCFEFFFDF2A19D73A
:10447000940EE66E420EE66E500EE66EC30EE66ECB
:1044800025EC09F0E552E552E552E5520A0EE15CF1
:1044900002E2E16AE552E16EE552E7CFD9FF120090
:1044A000D9CFE6FFE1CFD9FFE652DF6AFD0EDBCFC1
:1044B000E9FFFE0EDBCFEAFFEF5001E025D0FD0E55
:1044C000DBCFE9FFFE0EDBCFEAFFEF50E66E90C1D7
:1044D000E9FF91C1EAFFE552E750EF6E90C1E9FFB5
:1044E00091C1EAFF010EE926000EEA22010EEF6EED
:1044F00090C1E9FF91C1EAFF020EE926000EEA220F
:10450000EF6A030EDF6E01D000D0DFCFE6FFFFC001
:10451000E6FFC6EC1BF0E552E552E552E552E7CF67
:10452000D9FF1200D9CFE6FFE1CFD9FFBE0EE66E6C
:10453000450EE66EFE0EDBCFE6FF80EC1AF0E5528C
:10454000E552E552FE0EDBCFE6FF24EC1FF0E5520C
:10455000F3CFBFF1F4CFC0F1FE0EDBCFE6FF4AECA4
:1045600027F0E552F3CFE9FFF4CFEAFF080EE92682
:10457000000EEA22EECF14F0EFCF15F0010EE66E3A
:1045800004D015C0FAFF1450F96EFBDFE552E55276
:10459000E7CFD9FF1200D9CFE6FFE1CFD9FFFE0E5A
:1045A000DBCFE6FF6CEC1AF0E552FE0EDBCFE6FF48
:1045B00098EC1AF0E552E552E7CFD9FF1200D9CFB7
:1045C000E6FFE1CFD9FFE652DF6AFD0EDBCFE9FF60
:1045D000FE0EDBCFEAFFEF50010A28E0010A01E0FE
:1045E00040D0FD0EDBCFE9FFFE0EDBCFEAFFEF5040
:1045F000E66EBFC1E9FFC0C1EAFFE552E750EF6ECA
:10460000BFC1E9FFC0C1EAFF010EE926000EEA22A0
:10461000010EEF6EBFC1E9FFC0C1EAFF020EE9263D
:10462000000EEA22EF6A030EDF6E1CD0FD0EDBCF18
:10463000E9FFFE0EDBCFEAFFEF50E66EBFC1E9FFF8
:10464000C0C1EAFFE552E750EF6EBFC1E9FFC0C14C
:10465000EAFF010EE926000EEA22EF68020EDF6E85
:1046600001D000D0DFCFE6FFFB0EDBCFE6FFC6ECCC
:104670001BF0E552E552E552E552E7CFD9FF1200B3
:10468000D9CFE6FFE1CFD9FFFE0EDB50E8B0928232
:10469000E8A09292E552E7CFD9FF1200D9CFE6FF0A
:1046A000E1CFD9FF030EE126DE6ADD6A020EDB6888
:1046B000C29AC298C296C284C282C250020B08E05B
:1046C000020EDBCFF3FFDB06F350000801E2F5D763
:1046D000C350DF6E010EC4CFDBFFDECF14F0DDCFA1
:1046E00015F014C0F3FF15C0F4FF00D0030EE15C19
:1046F00002E2E16AE552E16EE552E7CFD9FF12002E
:10470000D9CFE6FFE1CFD9FF020EE126C7DFF3CF15
:10471000DEFFF4CFDDFFD950010FE96EDACFEAFFFB
:10472000EF50800B02E0010E02D0000E00D0146E9C
:10473000020EE15C02E2E16AE552E16E1450E552DC
:10474000E7CFD9FF1200D9CFE6FFE1CFD9FFFE0EA8
:10475000DB50E8B08082E8A08092E552E7CFD9FF35
:104760001200D9CFE6FFE1CFD9FF030EE126020EFA
:10477000DB68C29AC298C296C294C282C250020B2F
:1047800008E0020EDBCFF3FFDB06F350000801E286
:10479000F5D7C350DF6E010EC4CFDBFFDECF14F0C0
:1047A000DDCF15F014C0F3FF15C0F4FF00D0030EE9
:1047B000E15C02E2E16AE552E16EE552E7CFD9FF42
:1047C0001200D9CFE6FFE1CFD9FFFE0EDB50E8B0F3
:1047D0009286E8A09296E552E7CFD9FF1200D9CF92
:1047E000E6FFE1CFD9FF030EE126DE6ADD6A020EA5
:1047F000DB68C29AC298C286C284C282C250020BCF
:1048000008E0020EDBCFF3FFDB06F350000801E205
:10481000F5D7C350DF6E010EC4CFDBFFDECF14F03F
:10482000DDCF15F014C0F3FF15C0F4FF00D0030E68
:10483000E15C02E2E16AE552E16EE552E7CFD9FFC1
:104840001200D9CFE6FFE1CFD9FF020EE126C7DF84
:10485000F3CFDEFFF4CFDDFFD950010FE96EDACFE1
:10486000EAFFEF50800B02E0010E02D0000E00D0F4
:10487000146E020EE15C02E2E16AE552E16E145050
:10488000E552E7CFD9FF1200D9CFE6FFE1CFD9FF3C
:10489000FE0EDB50E8B08086E8A08096E552E7CFB8
:1048A000D9FF1200D9CFE6FFE1CFD9FF030EE126F1
:1048B000020EDB68C29AC298C286C294C282C250FB
:1048C000020B08E0020EDBCFF3FFDB06F35000081B
:1048D00001E2F5D7C350DF6E010EC4CFDBFFDECFA0
:1048E00014F0DDCF15F014C0F3FF15C0F4FF00D0B5
:1048F000030EE15C02E2E16AE552E16EE552E7CFC8
:10490000D9FF1200D9CFE6FFE1CFD9FFFE0EDB5071
:10491000E8B09682E8A09692E552E7CFD9FF120060
:10492000D9CFE6FFE1CFD9FF030EE126DE6ADD6ACB
:10493000020EDB68C29AC288C286C294C282C2508A
:10494000020B08E0020EDBCFF3FFDB06F35000089A
:1049500001E2F5D7C350DF6E010EC4CFDBFFDECF1F
:1049600014F0DDCF15F014C0F3FF15C0F4FF00D034
:10497000030EE15C02E2E16AE552E16EE552E7CF47
:10498000D9FF1200D9CFE6FFE1CFD9FF020EE12611
:10499000C7DFF3CFDEFFF4CFDDFFD950010FE96EA3
:1049A000DACFEAFFEF50800B02E0010E02D0000EDA
:1049B00000D0146E020EE15C02E2E16AE552E16EA3
:1049C0001450E552E7CFD9FF1200D9CFE6FFE1CF6F
:1049D000D9FFFE0EDB50E8B08482E8A08492E55255
:1049E000E7CFD9FF1200D9CFE6FFE1CFD9FF030E01
:1049F000E126020EDB68C29AC288C286C284C282E5
:104A0000C250020B08E0020EDBCFF3FFDB06F350CF
:104A1000000801E2F5D7C350DF6E010EC4CFDBFF03
:104A2000DECF14F0DDCF15F014C0F3FF15C0F4FF96
:104A300000D0030EE15C02E2E16AE552E16EE5526C
:104A4000E7CFD9FF1200D9CFE6FFE1CFD9FFFE0EA5
:104A5000DB50E8B0928AE8A0929AE552E7CFD9FFFE
:104A60001200D9CFE6FFE1CFD9FF030EE126DE6ABF
:104A7000DD6A020EDB68C29AC288C296C294C28204
:104A8000C250020B08E0020EDBCFF3FFDB06F3504F
:104A9000000801E2F5D7C350DF6E010EC4CFDBFF83
:104AA000DECF14F0DDCF15F014C0F3FF15C0F4FF16
:104AB00000D0030EE15C02E2E16AE552E16EE552EC
:104AC000E7CFD9FF1200D9CFE6FFE1CFD9FF020E21
:104AD000E126C7DFF3CFDEFFF4CFDDFFD950010FB2
:104AE000E96EDACFEAFFEF50800B02E0010E02D050
:104AF000000E00D0146E020EE15C02E2E16AE552A3
:104B0000E16E1450E552E7CFD9FF1200D9CFE6FF8E
:104B1000E1CFD9FFFE0EDB50E8B0808AE8A0809A92
:104B2000E552E7CFD9FF1200D9CFE6FFE1CFD9FF99
:104B3000030EE126020EDB68C29AC288C296C284C6
:104B4000C282C250020B08E0020EDBCFF3FFDB068D
:104B5000F350000801E2F5D7C350DF6E010EC4CF59
:104B6000DBFFDECF14F0DDCF15F014C0F3FF15C06E
:104B7000F4FF00D0030EE15C02E2E16AE552E16E6F
:104B8000E552E7CFD9FF1200D9CFE6FFE1CFD9FF39
:104B9000FE0EDB50E8B09382E8A09392E552E7CF97
:104BA000D9FF1200D9CFE6FFE1CFD9FF030EE126EE
:104BB000DE6ADD6A020EDB68C28AC298C286C294CF
:104BC000C282C250020B08E0020EDBCFF3FFDB060D
:104BD000F350000801E2F5D7C350DF6E010EC4CFD9
:104BE000DBFFDECF14F0DDCF15F014C0F3FF15C0EE
:104BF000F4FF00D0030EE15C02E2E16AE552E16EEF
:104C0000E552E7CFD9FF1200D9CFE6FFE1CFD9FFB8
:104C1000020EE126C7DFF3CFDEFFF4CFDDFFD95070
:104C2000010FE96EDACFEAFFEF50800B02E0010ED0
:104C300002D0000E00D0146E020EE15C02E2E16AC6
:104C4000E552E16E1450E552E7CFD9FF1200D9CFFB
:104C5000E6FFE1CFD9FFFE0EDB50E8B08182E8A08D
:104C60008192E552E7CFD9FF1200D9CFE6FFE1CF1D
:104C7000D9FF030EE126020EDB68C28AC288C29603
:104C8000C294C282C250020B08E0020EDBCFF3FFD7
:104C9000DB06F350000801E2F5D7C350DF6E010ECA
:104CA000C4CFDBFFDECF14F0DDCF15F014C0F3FF6F
:104CB00015C0F4FF00D0030EE15C02E2E16AE552A8
:104CC000E16EE552E7CFD9FF1200D9CFE6FFE1CF81
:104CD000D9FFFE0EDB50E8B09386E8A09396E5522C
:104CE000E7CFD9FF1200D9CFE6FFE1CFD9FF030EFE
:104CF000E126020EDB68C28AC298C296C284C282D2
:104D0000C250020B08E0020EDBCFF3FFDB06F350CC
:104D1000000801E2F5D7C350DF6E010EC4CFDBFF00
:104D2000DECF14F0DDCF15F014C0F3FF15C0F4FF93
:104D300000D0030EE15C02E2E16AE552E16EE55269
:104D4000E7CFD9FF1200D9CFE6FFE1CFD9FF020E9E
:104D5000E126DE6ADD6AC7DFF3CFDEFFF4CFDDFFD9
:104D6000D950010FE96EDACFEAFFEF50800B02E075
:104D7000010E02D0000E00D0146E020EE15C02E2C1
:104D8000E16AE552E16E1450E552E7CFD9FF120017
:104D9000D9CFE6FFE1CFD9FFFE0EDB50E8B0818628
:104DA000E8A08196E552E7CFD9FF1200D9CFE6FF00
:104DB000E1CFD9FF030EE126020EDB68C28AC2985A
:104DC000C296C294C282C250020B08E0020EDBCF30
:104DD000F3FFDB06F350000801E2F5D7C350DF6EA6
:104DE000010EC4CFDBFFDECF14F0DDCF15F014C011
:104DF000F3FF15C0F4FF00D0030EE15C02E2E16AAC
:104E0000E552E16EE552E7CFD9FF1200D9CFE6FFB8
:104E1000E1CFD9FFE652CF0EC1140009C16EF00EEA
:104E2000C1140009C16EC09EC70EC0143809C06EFF
:104E3000F80EC0140409C06EFE0EDB5003E0090E2C
:104E4000956E02D0836A9568DF6A060EDF5C1DE20C
:104E5000DF500A0DF3CFE9FFF4CFEAFF000EE92699
:104E6000010EEA22080EE926000EEA22EECF14F027
:104E7000EFCF15F0010EE66E04D015C0FAFF145006
:104E8000F96EFBDFE552DF2AE0D7E552E552E7CFC6
:104E9000D9FF1200D9CFE6FFE1CFD9FFFE0EDB0428
:104EA0000A0DF3CF14F0F4CF15F0000E1426010E06
:104EB000152214C0F3FF15C0F4FF00D0E552E7CF70
:104EC000D9FF1200D9CFE6FFE1CFD9FF280EE66E59
:104ED0004F0EE66EFE0EDBCFE6FF80EC1AF0E552D9
:104EE000E552E552FE0EDBCFE6FF24EC1FF0E55263
:104EF000F3CFBBF1F4CFBCF1E552E7CFD9FF1200FD
:104F0000D9CFE6FFE1CFD9FFFE0EDBCFE6FF6CEC99
:104F10001AF0E552FE0EDBCFE6FF98EC1AF0E552F0
:104F2000E552E7CFD9FF1200D9CFE6FFE1CFD9FF95
:104F3000260EE126020EDB6A030EDB6A1C0EDB6A1C
:104F40001D0EDB6A1E0EDB6A1F0EDB6A200EDB6A9B
:104F5000210EDB6A220EDB6A230EDB6A240EDB6A7B
:104F6000250EDB6AFD0EDBCFE9FFFE0EDBCFEAFF8D
:104F7000EF50FF0A01E1EDD1FD0A01E15BD1030A27
:104F800001E1CCD0020A2BE0030A01E0E4D1FD0EDE
:104F9000DBCFE9FFFE0EDBCFEAFFEF50E66EBBC1D1
:104FA000E9FFBCC1EAFFE552E750EF6EBBC1E9FF84
:104FB000BCC1EAFF010EE926000EEA22020EEF6EE6
:104FC000BBC1E9FFBCC1EAFF020EE926000EEA22DE
:104FD000EF6A030EF36E220EF3CFDBFFBDD1FD0EA1
:104FE000DBCFE9FFFE0EDBCFEAFFEF50E66EBBC181
:104FF000E9FFBCC1EAFFE552E750EF6EFD0EDBCFE3
:10500000E9FFFE0EDBCFEAFF010EE926000EEA22E1
:10501000230EEFCFDBFFFC0EDBCFE6FFFD0EDBCF79
:10502000E6FFFE0EDBCFE6FF34EC2DF0E552E55255
:10503000E552230EDB5063E0D950080FE66E000EF8
:10504000DA20E66ED950240FE66E000EDA20E66E06
:10505000B5EC2CF0E552E552E552E552E76E250E2F
:10506000E7CFDBFFBBC1E9FFBCC1EAFF010EE926C8
:10507000000EEA22240EDBCFEFFFBBC1E9FFBCC16B
:10508000EAFF020EE926000EEA22250EDBCFEFFF33
:10509000240EDB50030FE76E220EE7CFDBFF1C0E62
:1050A000DB6A240EDBCFF3FFDB06F350000826E2B9
:1050B000D950080F166EDACF17F01C0EDB500F0117
:1050C0001624E96E000E1720EA6EEF50E66EBBC1A3
:1050D000E9FFBCC1EAFFE9CF14F0EACF15F01C0EDE
:1050E000DB50030F0F011424E96E000E1520EA6E49
:1050F000E552E750EF6E1C0EDB2AD3D70ED0BBC1B2
:10510000E9FFBCC1EAFF010EE926000EEA22EF6AC0
:10511000020EF36E220EF3CFDBFF1ED1FD0EDBCFAE
:10512000E9FFFE0EDBCFEAFFEF50E66EBBC1E9FF01
:10513000BCC1EAFFE552E750EF6EFD0EDBCFE9FFA1
:10514000FE0EDBCFEAFF010EE926000EEA221D0E5D
:10515000EFCFDBFFFD0EDBCFE9FFFE0EDBCFEAFF7B
:10516000020EE926000EEA221E0EEFCFDBFFFD0E37
:10517000DBCFE9FFFE0EDBCFEAFF030EE926000ED0
:10518000EA22200EEFCFDBFFFD0EDBCFE9FFFE0EA4
:10519000DBCFEAFF040EE926000EEA22210EEFCF54
:1051A000DBFF200EDB50E66ED950040FE96EDACF3C
:1051B000EAFFE552E750EE6EED6A040EDBCF16F023
:1051C000050EDBCF17F016C017F0166A210EDB5064
:1051D00000011610146E17C015F0040E14C0DBFF8A
:1051E000050E15C0DBFF040EDBCFE6FF050EDBCF9F
:1051F000E6FF1E0EDBCFE6FF1D0EDBCFE6FF90ECD9
:105200002BF0E552E552E552E552E76E1F0EE7CF6F
:10521000DBFFBBC1E9FFBCC1EAFF010EE926000EBE
:10522000EA221F0EDBCFEFFF020EF36E220EF3CF4A
:10523000DBFF92D0FD0EDBCFE9FFFE0EDBCFEAFFF6
:10524000EF50E66EBBC1E9FFBCC1EAFFE552E75093
:10525000EF6EFD0EDBCFE9FFFE0EDBCFEAFF010EA6
:10526000E926000EEA221D0EEFCFDBFFFD0EDBCF9D
:10527000E9FFFE0EDBCFEAFF020EE926000EEA226E
:10528000060EEFCFDBFFFD0EDBCFE9FFFE0EDBCF1F
:10529000EAFF030EE926000EEA22070EEFCFDBFF3E
:1052A000D950060FE66E000EDA20E66E020EE66EAC
:1052B000020EE66E1D0EDBCFE6FF33EC2AF0146E15
:1052C000050EE15E1450D9CFE6FFDACFE6FFD950E4
:1052D000020FE66E000EDA20E66ED9501D0FE66E64
:1052E000000EDA20E66E9FEC2AF0146E060EE15EE8
:1052F0001450E76E1F0EE7CFDBFFBBC1E9FFBCC157
:10530000EAFF010EE926000EEA22010EDBCFEFFFD5
:10531000DECF14F0DDCF15F00D6A010E0E6E14C055
:1053200008F015C009F0D5EC15F004C014F005C064
:1053300015F0BBC1E9FFBCC1EAFF020EE926000E71
:10534000EA2214C0EFFF030EF36E220EF3CFDBFF51
:1053500003D0FF0001D000D0220EDBCFE6FFFB0E12
:10536000DBCFE6FFC6EC1BF0E552E552260EE15C12
:1053700002E2E16AE552E16EE552E7CFD9FF1200A1
:10538000D9CFE6FFE1CFD9FFFD0EDB50166E176ACD
:1053900016C017F0166AFE0EDB5000011624146EBC
:1053A000000E1720156E14C0F3FF15C0F4FF00D0D7
:1053B000E552E7CFD9FF1200AC6AAC9CAC9AAC982E
:1053C000AC96AC84AB6AAB8EAB9CAB98B86AB88633
:1053D000040EAF6EF28EF28C948E1200AB98949CF9
:1053E000AC8A1200948CAC9AAB880101616B1200FC
:1053F000AB98AC9A1200D9CFE6FFE1CFD9FFACA2AF
:10540000FED7FE0EDB50AD6EFE0EDB5000D0E55237
:10541000E7CFD9FF1200D9CFE6FFE1CFD9FF020EC7
:10542000E126980EDE6E3A0EDD6E9E50200B0CE1EA
:10543000DFCF14F0DF06010EDBCF15F001E2DB0653
:105440001450151001E0F1D79E9AAE5000D0146EA2
:10545000020EE15C02E2E16AE552E16E1450E552AF
:10546000E7CFD9FF1200D9CFE6FFE1CFD9FF020E77
:10547000E126010EDB6AB2DFE668BDDFE552E668D1
:10548000BADFE552FE0EDBCFE6FFB5DFE552146E64
:10549000010EDBCFE7FF1450E726010EE7CFDBFF5D
:1054A000FD0EDB50020FE66EA6DFE552146E010E14
:1054B000DBCFE7FF1450E726010EE7CFDBFFFC0E42
:1054C000DBCFE6FF98DFE552146E010EDBCFE7FF7E
:1054D0001450E726010EE7CFDBFFDF6AFD0EDB503D
:1054E000DF5C1BE2DF50E76EFA0EDBCFE9FFFB0E5D
:1054F000DBCFEAFFE750E926000EEA22EF50E66E26
:105500007ADFE552146E010EDBCFE7FF1450E72679
:10551000010EE7CFDBFFDF2AE1D7010EDB1CE66ED1
:105520006ADFE552ACA2FED75DDF020EE15C02E26B
:10553000E16AE552E16EE552E7CFD9FF1200D9CF1B
:10554000E6FFE1CFD9FF040EE126010EF36E030E54
:10555000F3CFDBFFFD0EDBCFE9FFFE0EDBCFEAFF73
:10556000EF6AFB0EDBCFE9FFFC0EDBCFEAFFEE6A52
:10557000ED6AF90EDBCFE9FFFA0EDBCFEAFFEE6A48
:10558000ED6A020EDB6ADF6A0101616B020EDB501D
:105590005EE1DF505CE1030EDB50050A3CE0010AEE
:1055A00028E0070A0DE0020A03E0030A01E04CD0FC
:1055B00032DFFF0803E1030EDB2A01D0DF2A46D0E9
:1055C0002ADFE66EFD0EDBCFE9FFFE0EDBCFEAFF42
:1055D000E552E750EF6EFD0EDBCFE9FFFE0EDBCFAD
:1055E000EAFFEF50FE0803E3030EDB2A01D0DF2AB7
:1055F0002DD011DFE76E010EE7CFDBFF200EF36E3B
:10560000010EDBCFF4FFF350F45C03E2030EDB2A60
:1056100001D0DF2A1BD0FFDEE66E01016151EA6A8C
:10562000410FE96E010EEA22E552E750EF6E0101EB
:10563000612B010EDB500101615D05E3010EF36E8C
:10564000020EF3CFDBFF02D0010EDF6E9FD7D0DE5C
:10565000DF5018E0FD0EDBCFE9FFFE0EDBCFEAFFE7
:10566000EF68FB0EDBCFE9FFFC0EDBCFEAFFEE6855
:10567000ED68F90EDBCFE9FFFA0EDBCFEAFFEE684B
:10568000ED6840D001014151E66EFB0EDBCFE9FF32
:10569000FC0EDBCFEAFFE552E750EE6EED6A010E3D
:1056A000DB50040A11E0070A01E024D00101425155
:1056B000E66EF90EDBCFE9FFFA0EDBCFEAFFE5522B
:1056C000E750EE6EED6A1ED043C1E6FF42C1E6FF31
:1056D00057DEE552E552F3CF14F0F4CF15F0F90E92
:1056E000DBCFE9FFFA0EDBCFEAFF14C0EEFF15C0F7
:1056F000EDFF08D0F90EDBCFE9FFFA0EDBCFEAFFB2
:10570000EE68ED68DF5000D0146E040EE15C02E23A
:10571000E16AE552E16E1450E552E7CFD9FF12007D
:10572000D9CFE6FFE1CFD9FF210EE126DF6AFD0EDA
:10573000DB50060A34E00E0A32E0060A30E0100AB6
:105740002EE03E0A2CE0020A2AE0120A28E0330A80
:1057500023E0070A21E0010A1FE00E0A1DE0070A04
:105760001BE0010A19E01D0A17E0010A15E0030A0F
:1057700013E0010A11E00B0A0FE0010A0DE0030A31
:105780000BE0010A09E0070A07E0010A05E0310A17
:1057900003E0030A01E006D0010EDF6E03D0020E23
:1057A000DF6E00D0FD0EDB50E76E010EE7CFDBFFB2
:1057B000FF0EE76EFB0EDBCF14F0FC0EDBCF15F017
:1057C000E7501416156A020E14C0DBFFDF50010803
:1057D00010E2FB0EDBCF14F0FC0EDBCF15F0000E59
:1057E0001416FF0E151615C014F0156A030E14C01A
:1057F000DBFFD950010FE66E000EDA20E66E030ED5
:10580000E66EDF28E66EFE0EDBCFE6FF2CDE146EC2
:10581000050EE15E14503F0EE66E010EE66E3D0E83
:10582000E66E010EE66E3C0EE66E010EE66E87DE5B
:10583000146E060EE15E145000D0146E210EE15C71
:1058400002E2E16AE552E16E1450E552E7CFD9FF7A
:105850001200D9CFE6FFE1CFD9FF000EE66EE66A6F
:10586000060EE66EFE0EDBCFE6FF5ADFE552E5528E
:10587000E552E552FD0EDB500EE0000EE66EE66AE4
:10588000080EE66EFE0EDBCFE6FF4ADFE552E5527C
:10589000E552E5520DD0E668030EE66E080EE66EA0
:1058A000FE0EDBCFE6FF3CDFE552E552E552E55266
:1058B000E552E7CFD9FF1200D9CFE6FFE1CFD9FFFC
:1058C000FC0EDBCF14F0FD0EDBCF15F00001800ED7
:1058D000151402E0FB0EDB70FC0EDBCF16F0FD0EA4
:1058E000DBCF17F00001800E17140BE0FC0EDBCFAE
:1058F00014F0FD0EDBCF15F0146C151E000E1522F2
:1059000006D0FC0EDBCF14F0FD0EDBCF15F0FC0E45
:1059100014C0DBFFFD0E15C0DBFFFB0EDB50146E69
:10592000156A0A0ED89014361536E806FBE1D950F0
:10593000FC0FE96EFF0EDA20EA6E1450EE121550DD
:10594000ED12FC0EDBCFE6FFFD0EDBCFE6FF200EF7
:10595000E66EFE0EDBCFE6FFE3DEE552E552E552F2
:10596000E552E552E7CFD9FF1200D9CFE6FFE1CFEC
:10597000D9FF030EE126DF6A010EDB6A020EDB6A45
:10598000D59EF29E040EDF5C13E245DDE66EDF502D
:10599000DF2AE76EFB0EDBCFE9FFFC0EDBCFEAFF71
:1059A000E750E926000EEA22E552E750EF6EEAD70B
:1059B000DF04E76EFB0EDBCFE9FFFC0EDBCFEAFF77
:1059C000E750E926000EEA22020EEFCFDBFF020EBF
:1059D000DB50200803E3020EDB5009E1FD0EDBCFB4
:1059E000E9FFFE0EDBCFEAFFEF6A010E31D0020EB7
:1059F000DB50F36E010EDBCFF4FFF350F45C16E2E4
:105A00000ADDE66E010EDB50DF24E76EFB0EDBCF16
:105A1000E9FFFC0EDBCFEAFFE750E926000EEA22A1
:105A2000E552E750EF6E010EDB2AE1D7D58EF28EFC
:105A3000DFDC010EDB50DF24E66EFD0EDBCFE9FF7D
:105A4000FE0EDBCFEAFFE552E750EF6E000E00D00E
:105A5000146E030EE15C02E2E16AE552E16E14505D
:105A6000E552E7CFD9FF1200D9CFE6FFE1CFD9FF4A
:105A7000E652020EDF6EB2DCFC0EDB50DF5C12E29F
:105A8000DF50DF2AE76EFD0EDBCFE9FFFE0EDBCF36
:105A9000EAFFE750E926000EEA22EF50E66EABDCA3
:105AA000E552EAD7ACA2FED79DDCE552E552E7CF3E
:105AB000D9FF1200D9CFE6FFE1CFD9FFD950FD0FB2
:105AC000E96EFF0EDA20EA6EEE50ED1004E1839AE3
:105AD000839C839209D08382FC0EDB0403E1839ACA
:105AE000838C02D0838A839CE552E7CFD9FF1200D2
:105AF000D9CFE6FFE1CFD9FFD950FD0FE96EFF0EF8
:105B0000DA20EA6EEE50ED1004E18398839E8394D0
:105B100009D08384FC0EDB5003E18398838E02D08E
:105B20008388839EE552E7CFD9FF1200D9CFE6FFE5
:105B3000E1CFD9FFFC0EDBCFE6FFFD0EDBCFE6FFAA
:105B4000FE0EDBCFE6FF64C1E6FF5CEC2CF0E55215
:105B5000E552E552E552E552E7CFD9FF1200D9CF21
:105B6000E6FFE1CFD9FFFC0EDBCFE6FFFD0EDBCF7A
:105B7000E6FFFE0EDBCFE6FF62C1E6FF5CEC2CF039
:105B8000E552E552E552E552E552E7CFD9FF120062
:105B9000E66A000EE66EE66A05D06BC1FAFF010107
:105BA0006A51F96EFADFE552E552E5523A0EE66EB9
:105BB0005D0EE66ED00EE66E070EE66EAFEC07F0F9
:105BC000E552E552E552E5521200E66A580EE66EDD
:105BD000020EE66E05D06BC1FAFF01016A51F96E43
:105BE000FADFE552E552E552900EE66E5B0EE66E88
:105BF000880EE66E130EE66E25EC09F0E552E552CE
:105C0000E552E5521200010EE66E580EE66E020EE7
:105C1000E66E05D06BC1FAFF01016A51F96EFADF39
:105C2000E552E552E552CA0EE66E5B0EE66E880E50
:105C3000E66E130EE66E25EC09F0E552E552E552EC
:105C4000E5521200E66A000EE66EE66A05D069C10A
:105C5000FAFF01016851F96EFADFE552E552E552AB
:105C6000060EE66E5C0EE66E880EE66E130EE66EAF
:105C700025EC09F0E552E552E552E5521200010E1D
:105C8000E66E580EE66E020EE66E05D069C1FAFFAA
:105C900001016851F96EFADFE552E552E552440E12
:105CA000E66E5C0EE66E880EE66E130EE66E25EC72
:105CB00009F0E552E552E552E5521200E66A580E47
:105CC000E66E020EE66E05D069C1FAFF0101685169
:105CD000F96EFADFE552E552E5527E0EE66E5C0E95
:105CE000E66E880EE66E130EE66E25EC09F0E552C0
:105CF000E552E552E5521200300EE66E600EE66E99
:105D000061EC0AF0E552E552E40EE66E5F0EE66ED7
:105D100061EC0AF0E552E552820EE66E5F0EE66E29
:105D200061EC0AF0E552E552360EE66E5F0EE66E65
:105D300061EC0AF0E552E55212000101845101E1E3
:105D4000DCD001017051711112E101016E516F112E
:105D50000EE1940EE66E420EE66E000EE66EE66A08
:105D600025EC09F0E552E552E552E55208D0940ED3
:105D7000E66E420EE66E61EC0AF0E552E552010174
:105D8000846BBADF0101786B01017051711107E07A
:105D9000FF0E0101701902E1030E711911E173C1C7
:105DA000E6FF70C1E6FF71C1E6FF05D06BC1FAFFE7
:105DB00001016A51F96EFADFE552E552E5522ED043
:105DC0000101701D01E1711D29E070C108F071C170
:105DD00009F053EC15F007C014F008C015F009C025
:105DE00016F00AC017F0900E0C6E3E0E0D6E7A0E75
:105DF0000E6E3F0E0F6E14C007F015C008F016C0EF
:105E000009F017C00AF068EC15F0FBEC15F008C0BB
:105E100076F109C077F10101010E786F01016E5131
:105E20006F1107E0FF0E01016E1902E1030E6F19F9
:105E300011E172C1E6FF6EC1E6FF6FC1E6FF05D05A
:105E400069C1FAFF01016851F96EFADFE552E552C6
:105E5000E55238D001016E1D01E16F1D33E06EC1C6
:105E600008F06FC109F053EC15F007C014F008C03A
:105E700015F009C016F00AC017F0900E0C6E3E0E19
:105E80000D6E7A0E0E6E3F0E0F6E14C007F015C029
:105E900008F016C009F017C00AF068EC15F0FBEC2A
:105EA00015F008C074F109C075F1820EE66E5F0E40
:105EB000E66E000EE66EE66A25EC09F0E552E55264
:105EC000E552E5520101780518E1FF0E01016E1956
:105ED00002E1030E6F1904E001016E516F110DE133
:105EE000300EE66E600EE66E000EE66EE66A25EC9B
:105EF00009F0E552E552E552E5523A0EE66E5D0EC6
:105F0000E66EE80EE66E030EE66E25EC09F0E5524D
:105F1000E552E552E5521200BC0EE66E5C0EE66EEE
:105F2000D00EE66E070EE66EAFEC07F0E552E552D6
:105F3000E552E5521200E66A000EE66EE66A05D00A
:105F400069C1FAFF01016851F96EFADFE552E552C5
:105F5000E552820EE66E5F0EE66E74C114F075C1F6
:105F600015F0E80ED8801456030E155614C0E6FF3F
:105F700015C0E6FF25EC09F0E552E552E552E55281
:105F80001200010178050FE1300EE66E600EE66E3C
:105F9000000EE66EE66A25EC09F0E552E552E552A0
:105FA000E5520101786B72C1E6FF6EC1E6FF6FC179
:105FB000E6FF05D069C1FAFF01016851F96EFADF09
:105FC000E552E552E552360EE66E5F0EE66E74C19E
:105FD000E6FF75C1E6FF25EC09F0E552E552E55212
:105FE000E5521200E66A000EE66EE66A05D06BC165
:105FF000FAFF01016A51F96EFADFE552E552E55206
:10600000300EE66E600EE66E76C114F077C115F0C4
:10601000E80ED8801456030E155614C0E6FF15C0BE
:10602000E6FF25EC09F0E552E552E552E552120093
:1060300073C1E6FF70C1E6FF71C1E6FF05D06BC119
:10604000FAFF01016A51F96EFADFE552E552E552B5
:10605000E40EE66E5F0EE66E76C1E6FF77C1E6FF00
:1060600025EC09F0E552E552E552E5521200D9CF90
:10607000E6FFE1CFD9FF050EE126020EDB6A030E33
:10608000DB6A2A0EDF6EDE52010EDD6ED9CFE6FF2F
:10609000DACFE6FF020EE66E020EE66E62C1E6FFA2
:1060A00033EC2AF0146E050EE15E1450FD0EDBCFCA
:1060B000E6FFFE0EDBCFE6FFD950020FE66E000EC4
:1060C000DA20E66ED950040FE66E000EDA20E66E96
:1060D0009FEC2AF0146E060EE15E1450050EE15C92
:1060E00002E2E16AE552E16EE552E7CFD9FF120024
:1060F000D9CFE6FFE1CFD9FFFD0EDBCFE9FFFE0EE2
:10610000DBCFEAFFEE68ED6AE552E7CFD9FF120078
:10611000D9CFE6FFE1CFD9FFFD0EDBCFE6FFFE0EC4
:10612000DBCFE6FF05D07AC1FAFF01017951F96EA4
:10613000FADFE552E552E552E7CFD9FF1200D9CF99
:10614000E6FFE1CFD9FF010EE66EFE0EDBCFE6FFE4
:1061500029EC2CF0E552E552000EE66EE66A1A0EC6
:10616000E66EFE0EDBCFE6FF90EC2BF0E552E5523B
:10617000E552E552000EE66EE66A1B0EE66EFE0E76
:10618000DBCFE6FF90EC2BF0E552E552E552E5520D
:106190005F0EE66EE66A1C0EE66EFE0EDBCFE6FFD5
:1061A00090EC2BF0E552E552E552E5525F0EE66EBB
:1061B000E66A1D0EE66EFE0EDBCFE6FF90EC2BF0DE
:1061C000E552E552E552E552960EE66EE66A300E6D
:1061D000E66EFE0EDBCFE6FF90EC2BF0E552E552CB
:1061E000E552E552E668030EE66E0E0EE66EFE0E12
:1061F000DBCFE6FF90EC2BF0E552E552E552E5529D
:10620000550EE66EE66A0B0EE66EFE0EDBCFE6FF7F
:1062100090EC2BF0E552E552E552E5523C0EE66E6D
:10622000E66A0C0EE66EFE0EDBCFE6FF90EC2BF07E
:10623000E552E552E552E552BE0EE66EE66A0D0EF7
:10624000E66EFE0EDBCFE6FF90EC2BF0E552E5525A
:10625000E552E552960EE66EE66A050EE66EFE0E15
:10626000DBCFE6FF90EC2BF0E552E552E552E5522C
:10627000E552E7CFD9FF1200D9CFE6FFE1CFD9FF32
:10628000060EE126050EDB6A020EF36E050EDBCF6D
:10629000F4FFF350F45C3DE2040EDB68000EE66EA2
:1062A000E66A010EE66EE66A7BC1E6FF33EC2AF091
:1062B000146E050EE15E1450D950020FE66E000E0A
:1062C000DA20E66ED9CFE6FFDACFE6FFD950040F29
:1062D000E66E000EDA20E66E9FEC2AF0146E060ED3
:1062E000E15E145001017B517B2BF36E040EDB50F9
:1062F000F35C0CE101017C517C2BEA6A6C0FE96EC6
:10630000010EEA22040EDBCFEFFF03D0050EDB2ADD
:10631000BBD7020E01017C5D13E36CC162F1010188
:10632000636B62C1E6FF0BDFE5526DC164F10101F1
:10633000010E656F64C1E6FF02DFE552EDDD13D0AB
:10634000FD0E01017B5D01E10ED0780EE66E620E5E
:10635000E66E880EE66E130EE66E25EC09F0E55249
:10636000E552E552E552060EE15C02E2E16AE552D1
:10637000E16EE552E7CFD9FF1200070E8214040840
:1063800017E10101F00E686F5A0E696F0101B40E3A
:106390006A6F5A0E6B6F0101020E7D6F0101F00EE4
:1063A000796F600E7A6F090E956E836AB5DD20D025
:1063B00001015E0E686F5B0E696F01012C0E6A6F42
:1063C0005B0E6B6F0101010E7D6F01016E0E796F27
:1063D000600E7A6F780EE66E620EE66ED00EE66E96
:1063E000070EE66EAFEC07F0E552E552E552E552D6
:1063F000120001017D5100D01200D9CFE6FFE1CF9C
:10640000D9FF5E0EE66E640EE66EFE0EDBCFE6FF93
:1064100080EC1AF0E552E552E552FE0EDBCFE6FFC6
:1064200024EC1FF0E552F3CF66F1F4CF67F1E552AB
:10643000E7CFD9FF1200D9CFE6FFE1CFD9FFFE0E9B
:10644000DBCFE6FF6CEC1AF0E552FE0EDBCFE6FF89
:1064500098EC1AF0E552E552E7CFD9FF1200D9CFF8
:10646000E6FFE1CFD9FF080EE126DF6AFD0EDBCFA4
:10647000E9FFFE0EDBCFEAFFEF50030A01E1B3D1E3
:10648000020A01E1DCD0030A46E0060A28E0040A19
:1064900001E0BDD1FD0EDBCFE9FFFE0EDBCFEAFF51
:1064A000EF50E66E66C1E9FF67C1EAFFE552E750CB
:1064B000EF6E66C1E9FF67C1EAFF010EE926000E33
:1064C000EA22020EEF6E66C1E9FF67C1EAFF020E23
:1064D000E926000EEA22EF6A030EDF6E99D1FD0E67
:1064E000DBCFE9FFFE0EDBCFEAFFEF50E66E66C1C1
:1064F000E9FF67C1EAFFE552E750EF6E66C1E9FFC9
:1065000067C1EAFF010EE926000EEA227DC1EFFF16
:10651000020EDF6E7DD1FD0EDBCFE9FFFE0EDBCF7D
:10652000EAFFEF50E66E66C1E9FF67C1EAFFE55298
:10653000E750EF6EFD0EDBCFE9FFFE0EDBCFEAFF8B
:10654000010EE926000EEA22050EEFCFDBFFFD0E5D
:10655000DBCFE9FFFE0EDBCFEAFF020EE926000EDD
:10656000EA22EFCF73F1FD0EDBCFE9FFFE0EDBCFAA
:10657000EAFF030EE926000EEA22030EEFCFDBFF4F
:10658000FD0EDBCFE9FFFE0EDBCFEAFF040EE926AE
:10659000000EEA22010EEFCFDBFF030EDB500101FC
:1065A000706F716B70C115F0146A010EDB50010140
:1065B0001410706F15C071F1010E0101D880735570
:1065C0000101726F020E01017D5D12E10101010EF8
:1065D000846F050EDB5008E170C16EF171C16FF17F
:1065E00001017069716903D001016E696F6924D07E
:1065F000050EDB5011E172C1E6FF70C1E6FF71C10B
:10660000E6FF05D069C1FAFF01016851F96EFADFB2
:10661000E552E552E55210D073C1E6FF70C1E6FFC6
:1066200071C1E6FF05D06BC1FAFF01016A51F96E35
:10663000FADFE552E552E552010EDF6EE9D0FD0EBC
:10664000DBCFE9FFFE0EDBCFEAFFEF50E66E66C15F
:10665000E9FF67C1EAFFE552E750EF6EFD0EDBCFC1
:10666000E9FFFE0EDBCFEAFF040EE926000EEA2268
:10667000EFCF73F1FD0EDBCFE9FFFE0EDBCFEAFFBC
:10668000050EE926000EEA22030EEFCFDBFFFD0E1A
:10669000DBCFE9FFFE0EDBCFEAFF060EE926000E98
:1066A000EA22010EEFCFDBFF030EDB500101706F1A
:1066B000716B70C115F0146A010EDB5001011410EA
:1066C000706F15C071F1FD0EDBCFE9FFFE0EDBCF61
:1066D000EAFF010EE926000EEA22EFCF72F1FD0E6D
:1066E000DBCFE9FFFE0EDBCFEAFF020EE926000E4C
:1066F000EA22040EEFCFDBFFFD0EDBCFE9FFFE0E3B
:10670000DBCFEAFF030EE926000EEA22020EEFCFEE
:10671000DBFF040EDB5001016E6F6F6B6EC115F075
:10672000146A020EDB50010114106E6F15C06FF178
:10673000010E0101D88072550101726F020E010134
:106740007D5D2EE101016E5101017E1904E101011F
:106750006F5101017F1914E101017051010180198C
:1067600004E101017151010181190AE10101725134
:106770000101825D05E1010173510101835D0FE0BB
:106780000101010E846F6EC17EF16FC17FF170C196
:1067900080F171C181F172C182F173C183F120D0A6
:1067A00072C1E6FF6EC1E6FF6FC1E6FF05D069C1A9
:1067B000FAFF01016851F96EFADFE552E552E55240
:1067C00073C1E6FF70C1E6FF71C1E6FF05D06BC182
:1067D000FAFF01016A51F96EFADFE552E552E5521E
:1067E000010EDF6E15D0FD0EDBCFE9FFFE0EDBCF15
:1067F000EAFFEF50E66E66C1E9FF67C1EAFFE552C6
:10680000E750EF6E8CEC2FF0010EDF6E01D000D060
:10681000DFCFE6FFFB0EDBCFE6FFC6EC1BF0E55259
:10682000E552080EE15C02E2E16AE552E16EE552F2
:10683000E7CFD9FF1200D9CFE6FFE1CFD9FF9A0EFB
:10684000E66E680EE66EFE0EDBCFE6FF80EC1AF019
:10685000E552E552E552FE0EDBCFE6FF24EC1FF0D9
:10686000E552F3CFB9F1F4CFBAF1E552E7CFD9FF52
:106870001200D9CFE6FFE1CFD9FFFE0EDBCFE6FF56
:106880006CEC1AF0E552FE0EDBCFE6FF98EC1AF046
:10689000E552E552E7CFD9FF1200D9CFE6FFE1CFAD
:1068A000D9FF030EE126DF6A030EF36E010EF3CF6C
:1068B000DBFF020EDB6AFD0EDBCFE9FFFE0EDBCF56
:1068C000EAFFEF50FF0A5AE0FC0A1FE0010A01E06C
:1068D00057D0FD0EDBCFE9FFFE0EDBCFEAFFEF5016
:1068E000E66EB9C1E9FFBAC1EAFFE552E750EF6EC3
:1068F000B9C1E9FFBAC1EAFF010EE926000EEA229A
:10690000170EEF6E020EDF6E3CD0FD0EDBCFE9FFFF
:10691000FE0EDBCFEAFFEF50E66EB9C1E9FFBAC168
:10692000EAFFE552E750EF6ED950010FE66E000E18
:10693000DA20E66E88EC30F0E552E552010EDBCF4E
:1069400014F0020EDBCF15F00D6A010E0E6E14C0AE
:1069500008F015C009F0D5EC15F004C014F005C01E
:1069600015F0B9C1E9FFBAC1EAFF010EE926000E30
:10697000EA2214C0EFFF020EDF6E03D0FF0001D049
:1069800000D0DFCFE6FFFB0EDBCFE6FFC6EC1BF04F
:10699000E552E552030EE15C02E2E16AE552E16E86
:1069A000E552E7CFD9FF1200D9CFE6FFE1CFD9FFFB
:1069B000AA0EE66E6A0EE66EFE0EDBCFE6FF80ECF8
:1069C0001AF0E552E552E552FE0EDBCFE6FF24EC6D
:1069D0001FF0E552F3CFB5F1F4CFB6F1FE0EDBCFE9
:1069E000E6FF4AEC27F0E552F3CFE9FFF4CFEAFFE8
:1069F000080EE926000EEA22EECF14F0EFCF15F0D4
:106A0000E66A04D015C0FAFF1450F96EFBDFE552B8
:106A1000E552E7CFD9FF1200D9CFE6FFE1CFD9FF8A
:106A2000FE0EDBCFE6FF4AEC27F0E552F3CFE9FF9D
:106A3000F4CFEAFF040EE926000EEA22EECF14F0AE
:106A4000EFCF15F0E66A04D015C0FAFF1450F96EC6
:106A5000FBDFE552FE0EDBCFE6FF4AEC27F0E55206
:106A6000F3CFE9FFF4CFEAFF080EE926000EEA2291
:106A7000EECF14F0EFCF15F0010EE66E04D015C086
:106A8000FAFF1450F96EFBDFE552FE0EDBCFE6FF96
:106A90006CEC1AF0E552FE0EDBCFE6FF98EC1AF034
:106AA000E552E552E7CFD9FF1200D9CFE6FFE1CF9B
:106AB000D9FFE652DF6AFD0EDBCFE9FFFE0EDBCF2A
:106AC000EAFFEF50FF0A01E17ED0FE0A28E0010A4A
:106AD00001E07BD0FD0EDBCFE9FFFE0EDBCFEAFF4E
:106AE000EF50E66EB5C1E9FFB6C1EAFFE552E750E7
